:100000000C94EC030C9414040C9414040C94140439
:100010000C9414040C9414040C9414040C94140400
:100020000C9414040C9414040C942F0C0C949E0C3B
:100030000C9414040C9414040C9414040C941404E0
:100040000C9414040C9414040C9414040C941404D0
:100050000C9414040C9414040C9414040C94D00EFA
:100060000C9414040C9414040C9414040C941404B0
:100070000C9414040C9414040C9414040C941404A0
:100080000C941A0F0C9414040C9414040C9414047F
:100090000C9414040C9414040C9414040C94140480
:1000A0000C9414040C9414040C9414040000000028
:1000B000003E5B4F5B3E3E6B4F6B3E1C3E7C3E1CEE
:1000C000183C7E3C181C577D571C1C5E7F5E1C0034
:1000D000183C1800FFE7C3E7FF0018241800FFE7EB
:1000E000DBE7FF30483A060E2629792926407F05AE
:1000F0000507407F05253F5A3CE73C5A7F3E1C1CC4
:1001000008081C1C3E7F14227F22145F5F005F5F83
:1001100006097F017F006689956A6060606060946F
:10012000A2FFA29408047E040810207E2010080874
:100130002A1C08081C2A08081E101010100C1E0C7F
:100140001E0C30383E3830060E3E0E060000000011
:100150000000005F00000007000700147F147F14F8
:10016000242A7F2A1223130864623649562050003D
:1001700008070300001C2241000041221C002A1C29
:100180007F1C2A08083E0808008070300008080814
:100190000808000060600020100804023E51494534
:1001A0003E00427F400072494949462141494D3352
:1001B0001814127F1027454545393C4A49493141B9
:1001C000211109073649494936464949291E000087
:1001D00014000000403400000008142241141414DC
:1001E0001414004122140802015909063E415D59C8
:1001F0004E7C1211127C7F494949363E41414122D1
:100200007F4141413E7F494949417F090909013EFA
:10021000414151737F0808087F00417F4100204021
:10022000413F017F081422417F404040407F021C33
:10023000027F7F0408107F3E4141413E7F0909094A
:10024000063E4151215E7F09192946264949493216
:1002500003017F01033F4040403F1F2040201F3FDC
:100260004038403F63140814630304780403615961
:10027000494D43007F4141410204081020004141A3
:10028000417F04020102044040404040000307084F
:100290000020545478407F2844443838444444284B
:1002A000384444287F385454541800087E090218F2
:1002B000A4A49C787F0804047800447D400020407A
:1002C000403D007F1028440000417F40007C0478BE
:1002D00004787C080404783844444438FC18242406
:1002E0001818242418FC7C08040408485454542486
:1002F00004043F44243C4040207C1C2040201C3C03
:100300004030403C44281028444C9090907C4464F9
:10031000544C44000836410000007700000041368C
:10032000080002010204023C2623263C1EA1A16112
:10033000123A4040207A3854545559215555794144
:100340002154547841215554784020545579400C1B
:100350001E527212395555555939545454593955FC
:100360005454580000457C410002457D420001453F
:100370007C40F0292429F0F0282528F07C545545AC
:10038000002054547C547C0A097F4932494949323F
:100390003248484832324A4848303A4141217A3A54
:1003A00042402078009DA0A07D39444444393D401E
:1003B00040403D3C24FF2424487E4943662B2FFCCB
:1003C0002F2BFF0929F620C0887E09032054547979
:1003D000410000447D413048484A32384040227A4A
:1003E000007A0A0A727D0D19317D2629292F2826C7
:1003F0002929292630484D402038080808080808CF
:100400000808382F10C8ACBA2F102834FA00007B27
:10041000000008142A142222142A1408950022002D
:1004200095AA005500AAAA55AA55AA000000FF00E7
:10043000101010FF00141414FF001010FF00FF1024
:1004400010F010F0141414FC001414F700FF000056
:10045000FF00FF1414F404FC141417101F10101FD5
:10046000101F1414141F00101010F0000000001FC3
:10047000101010101F10101010F010000000FF10CE
:100480001010101010101010FF10000000FF1400CA
:1004900000FF00FF00001F10170000FC04F41414FC
:1004A0001710171414F404F40000FF00F7141414C8
:1004B00014141414F700F7141414171410101F1048
:1004C0001F141414F4141010F010F000001F101F6B
:1004D0000000001F14000000FC140000F010F010D9
:1004E00010FF10FF141414FF141010101F00000050
:1004F00000F010FFFFFFFFFFF0F0F0F0F0FFFFFF54
:100500000000000000FFFF0F0F0F0F0F38444438AA
:10051000447C2A2A3E147E02020606027E027E02E5
:1005200063554941633844443C04407E201E200604
:10053000027E020299A5E7A5991C2A492A1C4C7241
:1005400001724C304A4D4D303048784830BC625AC8
:10055000463D3E494949007E0101017E2A2A2A2A58
:100560002A44445F444440514A444040444A514034
:100570000000FF0103E080FF000008086B6B0836F5
:1005800012362436060F090F060000181800000066
:100590001010003040FF0101001F01011E00191D55
:1005A0001712003C3C3C3C0000000000F0F89C8E20
:1005B0008783878E9CF8F00000FEFF03030303038C
:1005C000070EFCF80000FEFF0303030303070EFC05
:1005D000F80000FFFF00000000000000FFFF000027
:1005E000FEFF8383838383C7EE7C380000F8FC0E14
:1005F00007030303070EFCF800003F7FE0C0808084
:10060000C0E07F3FFFFF01010101010101FFFF0089
:1006100000FFFF0C0C0C0C1C3E77E3C100007FFFB9
:10062000C0C0C0C0C0E0703F1F00001F3F70E0C0EE
:10063000C0C0E0703F1F00007FFFC1C1C1C1C1E366
:10064000773E1C00001F3F70E0C0C0C0E0703F1F3D
:10065000000000000001FFFF01000000D5F08D1434
:10066000A1C881CFD9F1AF200050726573732041CA
:100670006E7920427574746F6E0053454352455431
:1006800020434F4E534F4C45006D656F77004D6FC3
:100690006F6E2043617400526F636B6574204C6110
:1006A000756E63680054696E792055464F00446149
:1006B0006E63696E6720526F626F74004A555354BF
:1006C000204B494444494E470053595354454D200B
:1006D0004552524F520053637265656E20457870E3
:1006E0006C6F73696F6E003E5F00437572736F725B
:1006F00020457363617065005365637265742044BF
:10070000657620526F6F6D0048492044414E004885
:10071000454C4C4F0048756E6920526F626F7400F3
:1007200054686520636F6E736F6C6520736D696CC0
:1007300065730031302F313020434F4D504C4554BC
:10074000450053454352455420464F554E44005FA3
:10075000003E0020002F0053656372657473200013
:10076000080B00020202000009040000010202005E
:1007700000052400100105240101010424020605DE
:10078000240600010705810310004009040100024E
:100790000A0000000705020240000007058302402E
:1007A00000000403090412010002EF02014041238A
:1007B000368000010102030141726475696E6F2089
:1007C0004C4C430041726475696E6F204C656F6ECE
:1007D0006172646F0000AE0F11241FBECFEFDAE02C
:1007E000DEBFCDBF11E0A0E0B1E0E8E0FEE202C074
:1007F00005900D92A039B107D9F726E0A0E9B1E044
:1008000001C01D92AB34B207E1F713E0CCEED3E0A8
:1008100004C02197FE010E94FC16CB3ED107C9F708
:100820000E94DB0F0C9402170C94000080919F0132
:100830000895E7EEF1E0A0E0B8E000800EBC811181
:10084000012C1197A0FDFDCF0192B9F70DB40895C9
:10085000480F592F511D1416150684F5803891053F
:100860006CF597FF02C090E080E04138510514F02C
:1008700040E850E0481BFB01E770FF2721E001C082
:10088000220FEA95EAF777FF02C0695F7F4FFB010D
:1008900033E0F595E7953A95E1F7F695FE2FEE27CB
:1008A000F795E795E80FF91FE951FE4F415030F0F9
:1008B0008191DF011197822B8C93F8CF0895FC0171
:1008C0008091E601882311F13FB7F89482E080938C
:1008D000E9002091F200822F90E01816190614F416
:1008E00081E090E0882339F0289844E64093E501C0
:1008F0004091F1004083222339F02091F200211130
:1009000003C02BE62093E8003FBF08958FEF9FEFD1
:1009100008952FB7F89483E08093E9009091E80060
:10092000892F807295FF04C09091F20080E4891BAA
:100930002FBF08958091DD0181110DC082E0809369
:10094000D90184E08093DA011092DC011092DB017E
:1009500081E08093DD0189ED91E00895CF93DF93ED
:100960001F92CDB7DEB76983DC01ED91FC91028067
:10097000F381E02D41E050E0BE016F5F7F4F0995AC
:100980000F90DF91CF91089583E08093E9008091EB
:10099000F200882319F08AE38093E80008950E940A
:1009A000890490E00895CF93DF931F92CDB7DEB70F
:1009B000FC018485958597FD08C02FEF3FEF3587B3
:1009C00024870F90DF91CF910895CE0101960E9468
:1009D0005F04019719F4898190E0F3CF8FEF9FEFC7
:1009E000F0CF0F931F93CF93DF931F92CDB7DEB756
:1009F0008C01FC018485958597FF0BC0CE01019683
:100A00000E945F04019771F4898190E0F801958755
:100A10008487F801848595850F90DF91CF911F9190
:100A20000F9108958FEF9FEFF1CFFC01848595859D
:100A300097FD0BC09FB7F89482E08093E900809106
:100A4000F2009FBF90E0019608959FB7F89482E06E
:100A50008093E9008091F2009FBF90E0089540915B
:100A6000D3015091D4012091D1013091D20142178C
:100A70005307B4F49091E8009570E1F39091E80089
:100A800092FD19C08093F1008091D3019091D4011F
:100A900001968F739927892B19F48EEF8093E800C4
:100AA0008091D3019091D40101969093D4018093C9
:100AB000D30181E0089580E00895DF92EF92FF92E4
:100AC0000F931F93CF93DF93D82E8A01EB017B0105
:100AD000E40EF51ECE15DF0559F0D7FE12C0FE015B
:100AE00084910E942F0521968111F4CF0FEF1FEF03
:100AF000C801DF91CF911F910F91FF90EF90DF9090
:100B000008958881EECF0F931F93CF93DF931F92A9
:100B1000CDB7DEB782E0898342E450E060E677E05B
:100B200080E80E945D050E949A04DC0112960D91F6
:100B30001C910115110589F0D801ED91FC910280FD
:100B4000F381E02DBE016F5F7F4FC801099597FDCE
:100B500004C0F80100851185ECCF89810F90DF91E9
:100B6000CF911F910F910895615030F02091F100C5
:100B7000FC0120830196F8CF289884E68093E50154
:100B800008953FB7F8948091CD019091CE01A09146
:100B9000CF01B091D00126B5A89B05C02F3F19F019
:100BA0000196A11DB11D3FBFBA2FA92F982F8827ED
:100BB000BC01CD01620F711D811D911D42E0660FC8
:100BC000771F881F991F4A95D1F708958F929F929A
:100BD000AF92BF92CF92DF92EF92FF926B017C01B6
:100BE0000E94C1054B015C01C114D104E104F10470
:100BF000B9F00E94C105681979098A099B09683E04
:100C000073408105910580F321E0C21AD108E10803
:100C1000F10888EE880E83E0981EA11CB11CE4CF79
:100C2000FF90EF90DF90CF90BF90AF909F908F900C
:100C300008958F929F92AF92BF92CF92DF92EF92E0
:100C4000FF920F931F93CF93DF936C017B018A0177
:100C500080910E01882309F45CC08091E60188230D
:100C600009F457C08091D80180FF05C08091E00051
:100C700082608093E000E801B12C8AEFA82E93E017
:100C8000892E2AE3922E209711F4BB20D9F10E94DD
:100C9000890481110AC0AA94AA20D9F161E070E008
:100CA00080E090E00E94E605EECF8C171D0611F063
:100CB0000CF08C2F9FB7F8948092E9002091E80007
:100CC00025FD02C09FBFDFCF282F30E0C21BD30B12
:100CD000F701815020F041914093F100FACFE20EEC
:100CE000F31EBB2021F09092E800B12CEBCF809155
:100CF000E80085FDE7CF9092E800BB24B3942097ED
:100D000009F3F3CF5D9884E68093D701101611069E
:100D10003CF081E090E0F6019383828310E000E0F4
:100D2000C801DF91CF911F910F91FF90EF90DF905D
:100D3000CF90BF90AF909F908F900895AF92BF9249
:100D4000CF92DF92EF92FF920F931F93CF93DF9397
:100D50006C017B018B01040F151FEB015E01AE18C6
:100D6000BF08C017D10759F06991D601ED91FC91E8
:100D70000190F081E02DC6010995892B79F7C50115
:100D8000DF91CF911F910F91FF90EF90DF90CF9067
:100D9000BF90AF90089520919801E0919601F09155
:100DA0009701CF0102969093970180939601222399
:100DB00019F0859194910895808191810895CF9241
:100DC000DF92EF92FF92CF93DF930E94CB068115C3
:100DD00020E8920791F4809171008D7F80937100DB
:100DE000109291004698479810929501DF91CF910B
:100DF000FF90EF90DF90CF90089521E02093950130
:100E0000813020E8920751F48091930190919401F0
:100E100090939701809396010E94CB0697FD05C0A1
:100E200020919201222309F454C0209191012111B3
:100E300050C021E020939901EC01DF77209709F061
:100E40004BC081E080939A0146983FE9C32E3FE072
:100E5000D32EE12CF12CCAEFD0E0E0914506F091C1
:100E600046060995811103C081E080939A01809123
:100E70009901882329F080919A01882309F43FC0C1
:100E800047980E94CB060097F1F19C01DE010E9479
:100E9000B916DC01CB0129E0B595A7959795879503
:100EA0002A95D1F7109290002AE020939100D092D9
:100EB0009900C092980080939B0190939C01A0930D
:100EC0009D01B0939E0180917100826080937100BA
:100ED0008DCF10929901B0CF9E0150E040E060E4C8
:100EE00072E48FE090E00E94781669017A0181E057
:100EF000C81AD108E108F10810929A01AECF4699BC
:100F0000BFCF479ABECF8FEF9FEFDC01CBCFEF92E1
:100F1000FF920F931F93DC01E1E7F0E090819D7F4A
:100F2000908310929801E7E3F6E0F0939701E09345
:100F30009601F0939401E0939301B183A0837383AE
:100F40006283558344833783268311870087F38622
:100F5000E2861F910F91FF90EF900C94DF062D9A7F
:100F60000895BC0190E080E00C94E6058FB1809577
:100F7000807F669B88601C9B8460089520E191E0DF
:100F800061FD94E060FD990F62FD9295687F269F58
:100F9000D0011124A80FA951BE4F8C9140FF03C06E
:100FA000892B8C93089590958923FBCF80389105E8
:100FB00028F46034710510F40C94BE070895EF9284
:100FC000FF920F931F93CF93DF937C018B01040F4C
:100FD000111DEB0177FF02C0D0E0C0E0C801013471
:100FE000110514F080E490E0C817D9073CF441E003
:100FF000BE01C7010E94D6072196F0CFDF91CF91A5
:101000001F910F91FF90EF900895EF92FF920F9331
:101010001F93CF93DF937C018B01C42FD22F6034B9
:10102000710514F40E942804B8016D0F711D615000
:1010300071096034710524F44C2FC7010E94280403
:101040004D2FB801C7010E94DF07C7018C0F911D0A
:101050004D2FB8010197DF91CF911F910F91FF9014
:10106000EF900C94DF072F923F924F925F926F9216
:101070007F928F929F92AF92BF92CF92DF92EF9228
:10108000FF920F931F93CF93DF9300D000D0CDB783
:10109000DEB77C018B01242F30E03C832B8381E081
:1010A00090E05C01A21AB30A19013194219431082D
:1010B000220C331CB901600F711F41E0C7010E946F
:1010C000D607B8018B819C81681B790B41E0C70171
:1010D0000E94D60741E0B8018B819C818E0D9F1D37
:1010E0000E94D60741E0B801C7012B813C81821BD9
:1010F000930B0E94D607D12CC12C81E090E09A83FB
:1011000089832B813C81C216D3060CF05DC0B7FCED
:1011100009C0215031093C832B8332E0230E311C5E
:10112000A20CB31C8FEFC81AD80A29813A812E5F0E
:101130003F4F3A832983A20EB31E37016C0C7D1CEE
:1011400041E08B809C80800E911EB401C3010E94FF
:10115000D60727014C185D0841E0B401C2010E9486
:10116000D60741E048018B819C81881A990AB40115
:10117000C3010E94D60741E0B401C2010E94D60714
:101180004601800E911E41E0B4016B807C806E0CA4
:101190007F1CC3010E94D60741E0B40127012B81C7
:1011A0003C81421A530AC2010E94D60748018C189A
:1011B0009D0841E0B401C3010E94D60741E0B4019B
:1011C000C2010E94D6079DCF0F900F900F900F90F5
:1011D000DF91CF911F910F91FF90EF90DF90CF9013
:1011E000BF90AF909F908F907F906F905F904F9047
:1011F0003F902F9008952F923F924F925F926F925F
:101200007F928F929F92AF92BF92CF92DF92EF9296
:10121000FF920F931F93CF93DF93EC018B017A0121
:101220006901C61AD70AD7FE03C0D194C194D10868
:1012300047018C1A9D0A97FE03C0919481949108EE
:101240008C149D0454F49E2D8F2D7901292F382F55
:101250009C2F8D2FE801092F182FEC16FD0654F452
:10126000902F812F8901292F382F9C2F8D2FE70157
:10127000E92EF82E17012C1A3D0A2901401A510AAD
:1012800057FE03C0519441945108310137FE03C009
:101290008FEF681A780A759467948FEF0217130717
:1012A0000CF481E0A82E880FBB08EC16FD06A4F014
:1012B00041E0BE01C8018C149D0414F0B801CE01B8
:1012C0000E94D6076418750877FE04C00A0D1B1D1E
:1012D000620C731C2196E9CFDF91CF911F910F9182
:1012E000FF90EF90DF90CF90BF90AF909F908F9046
:1012F0007F906F905F904F903F902F9008952F9226
:101300003F924F925F926F927F928F929F92AF9295
:10131000BF92CF92DF92EF92FF920F931F93CF93E2
:10132000DF937C016B0188248394912CD0E0C0E092
:1013300004E010E098EF692E77247A942DEFA22E26
:10134000BB24BA94842F8470582E842F8270482E28
:10135000842F8870382E4170242E219682E0880ECA
:10136000911CA80CB91C552091F041E0B8016C0DFE
:101370007D1DC7018C0F9D1F0E94D60741E0B6015D
:101380006C0F7D1FC8018E0D9F1D0E94D607442043
:1013900091F041E0B601601B710BC7018C0F9D1FDE
:1013A0000E94D60741E0B6016C1B7D0BC8018E0D73
:1013B0009F1D0E94D607332091F041E0B6016C0FCB
:1013C0007D1FC701801B910B0E94D60741E0B80129
:1013D0006C0D7D1DC7018C1B9D0B0E94D607222022
:1013E00091F041E0B6016C1B7D0BC701801B910B96
:1013F0000E94D60741E0B601601B710BC7018C1B30
:101400009D0B0E94D607C017D10754F4B7FCA5CF97
:101410000150110982E0680E711CA60CB71C9DCF0B
:10142000DF91CF911F910F91FF90EF90DF90CF90C0
:10143000BF90AF909F908F907F906F905F904F90F4
:101440003F902F9008956F927F928F929F92AF92CC
:10145000BF92CF92DF92EF92FF920F931F93CF93A1
:10146000DF936D3089F0C090C101D090C2016A3025
:10147000E1F41092C4011092C30188E0C80ED11C9F
:10148000D092C201C092C10181E090E0DF91CF9182
:101490001F910F91FF90EF90DF90CF90BF90AF9092
:1014A0009F908F907F906F90089560900101E090E1
:1014B000C301F090C401E5E06E9FE0011124C45522
:1014C000DF4F570100E010E0053029F0CE01019612
:1014D000FE011491EC01460188E0782E412F417005
:1014E00010FD1BC0662021F0B401C5010E94D60783
:1014F00016957A94FFEF8F1A9F0A7110EFCF0F5F46
:101500008FEFA81AB80A0630F1F6E6E0EE0EF11CED
:10151000F092C401E092C301B7CF462DE5CF0F93FF
:101520001F93CF93DF938C01D0E0C0E0F801EC0F64
:10153000FD1F6491662341F087E496E00E94230A30
:10154000892B11F02196F2CFCE01DF91CF911F911F
:101550000F9108959091A201982329F49091A301ED
:10156000982381E009F480E0089580E00C94190448
:10157000E7EEF1E081118FEF002481938193819355
:1015800081930394D1F7089580E00E94B80A1092E5
:10159000C2011092C1011092C4011092C3010895BA
:1015A000EF92FF920F931F93CF93DF931092C50199
:1015B0009091C601E7EAF1E09031D8F5E92FF0E02B
:1015C000E955FE4F80839F5F9093C6018091900103
:1015D0008F5F809390015091C60167EB71E0ACE39F
:1015E000B1E090E080E0182FFB012191BF012111B3
:1015F0001AC012964C9112975417A8F0E52FE41BCD
:10160000F0E0E955FE4F30E020E0241708F0ACC0D0
:101610000191CD91DC911197C20FD31FC8812F5F2B
:101620003F4F0C1791F3019614968A309105D9F625
:1016300018C09181919391E0E63BF907D1F780932F
:10164000B601C4CFCAE5EC2EF12C04EE12E026E47C
:1016500030E040E753E06CE370E084E992E00E9400
:101660008707DF91CF911F910F91FF90EF90089521
:10167000BEE6EB2EF12C00E113E026E430E04EEE66
:1016800051E066E470E08AE491E0E9CFA6E4EA2E56
:10169000F12C07E215E023E230E050E040E062E3A5
:1016A00070E08CED93E0DBCFF0E5EF2EF12C08EB52
:1016B00011E027E330E04CED50E067E370E08CEDA3
:1016C00090E0CDCFE0E5EE2EF12C10E000E020E53B
:1016D00030E042E550E060E570E08EE690E0BFCF9C
:1016E00078E7E72EF12C07E310E026E430E04CED3C
:1016F00050E063E270E080E793E0B1CF6CE3E62E68
:10170000F12C00E113E02DE230E043E952E06DE21C
:1017100070E08BE092E0A3CF58E7E52EF12C03E9CF
:1017200012E02AE530E04BE052E06AE570E088E83C
:1017300091E095CF4AE5E42EF12C08EB11E022E38D
:1017400030E04AE252E062E370E088EB91E087CF5C
:101750003CE8E32EF12C07E114E02AE530E040E11B
:1017600053E06AE570E0D5CFFC01E954FE4F21E07B
:101770002083109302011092A4011092C6011092CE
:10178000C501880F991F880F991FFC01E45CFE4F6B
:10179000E381EA3008F065CFF0E0EF52F44F0C94AB
:1017A000FC16220B380B460B540B620B700B7E0B96
:1017B0008C0B9A0BA80B089590E080E008958F920F
:1017C0009F92AF92BF920F931F93CF93DF93CDB7AA
:1017D000DEB7A1970FB6F894DEBF0FBECDBF19A23A
:1017E000423008F44AE08E010F5D1F4F842E912C89
:1017F000B12CA12CA50194010E949716E62FB901E6
:10180000CA01EA3044F5E05DD801EE938D01232B47
:10181000242B252B79F790E080E0109769F0FD01EB
:1018200001900020E9F73197AF014A1B5B0BBD0126
:1018300087E496E00E949E06A1960FB6F894DEBF5C
:101840000FBECDBFDF91CF911F910F91BF90AF9091
:101850009F908F900895E95CD7CF0C9462161F92E9
:101860000F920FB60F9211248F939F938091E100F6
:101870009091E100937F9093E10083FF0FC010925D
:10188000E90091E09093EB001092EC0092E39093CA
:10189000ED001092E60198E09093F00082FF22C0E4
:1018A00093E09093E9009091F200992319F09AE364
:1018B0009093E8009091D701992341F09091D7013E
:1018C00091509093D701911101C05D9A9091E501DB
:1018D000992341F09091E50191509093E501911188
:1018E00001C0289A84FF18C08091E2008E7E81603A
:1018F0008093E2008091E1008F7E8093E1008091EF
:10190000D8018E7E80618093D8019F918F910F9036
:101910000FBE0F901F90189580FFF7CF8091E200C7
:101920008E7E80618093E2008091E1008E7E8093C4
:10193000E1008091D8018E7E8160E5CF1F920F92E9
:101940000FB60F921124CF92DF92EF92FF920F9376
:101950001F932F933F934F935F936F937F938F9337
:101960009F93AF93BF93EF93FF93CF93DF93CDB745
:10197000DEB76C97DEBFCDBF1092E9008091E80022
:1019800083FF25C068E0CE0145960E94B40582EF32
:101990008093E8008D8987FF39C09091E80090FF1F
:1019A000FCCF982F907609F034C19E894F89588DCD
:1019B0002F89F88C911131C0803861F58091D60162
:1019C0008093F1001092F1008EEF8093E8006C9606
:1019D0000FB6F894DEBF0FBECDBFDF91CF91FF9160
:1019E000EF91BF91AF919F918F917F916F915F9197
:1019F0004F913F912F911F910F91FF90EF90DF90AA
:101A0000CF900F900FBE0F901F9018959EEF909360
:101A1000E800C7CF1092F100D5CF913059F4811171
:101A2000D3CF4130510581F68091D6018D7F8093CF
:101A3000D601CACF933049F48111C6CF4130510548
:101A400019F68091D6018260F2CF953041F48091F1
:101A5000E80080FFFCCF20682093E300B5CF9630EC
:101A600009F0A9C00B8D1C8D22E01092E9001092A4
:101A7000D4011092D301F2122EC01092D201109212
:101A8000D1010E9483051F8299E09983FA8291E037
:101A90009E8390EA98879AEF99872091D30130919D
:101AA000D401275F3F4F3C832B838D831092E90045
:101AB0001092D4011092D3011093D2010093D1015E
:101AC00049E050E0BE016F5F7F4F80E00E945D05FE
:101AD0000E94830579CF1093D2010093D1010E9417
:101AE0009A04DC0112960D911C910115110509F45F
:101AF00051C1D801ED91FC910480F581E02DBE012A
:101B00006B5E7F4FC8010995009709F03EC1F8014F
:101B100000851185EACFF3E0FF120EC08F8988237C
:101B200009F440C0823061F440E860E184EC97E061
:101B30000E947B0F811148CF81E28093EB0047CF59
:101B4000813029F440E86BE088EB97E0F1CF8330F7
:101B500099F70E949A04DC011296ED90FC908E0198
:101B60000F5F1F4F6801E114F10479F0D701ED9187
:101B7000FC910680F781E02DB801C7010995080F97
:101B8000111DF701E084F184EECFD8011C92F6011B
:101B900001900020E9F73197BF016C197D0940E001
:101BA000C601C6CF62EA77E0FB01449150E080E8CD
:101BB0000E945D0509CF973009F4BECF983021F41B
:101BC00081E08093F10000CF993009F0FDCE837061
:101BD00009F0B2CFEBE6F1E081E031E096E321914C
:101BE000222371F08093E9003093EB00DF0111971D
:101BF0002C912093EC009093ED008F5F873079F764
:101C00008EE78093EA001092EA008F898093E601C4
:101C1000DBCE8B8D9C8D1092E9001092D401109236
:101C2000D3019093D2018093D101898D811192C00B
:101C30008E899D89913A49F4813209F07DCF47E040
:101C400050E067E071E080E0B3CF913209F074CFEB
:101C5000833269F48F89988DB0E0A0E0809303010E
:101C600090930401A0930501B0930601ADCE80329C
:101C700069F48091E80082FFFCCF67E087E091E0A3
:101C80000E94B4058BEF8093E8009ECE823209F06B
:101C90009BCE8F8980930E01EEEFFFE785919491A3
:101CA0008B3F9C4D51F1E0E0F8E08091070190916D
:101CB0000801A0910901B0910A01803B9440A1055F
:101CC000B105F1F480910E0180FD1AC0EE3F8AE06B
:101CD000F80789F587E797E7918380838091600013
:101CE0008093D50188E19BE00FB6F894A895809386
:101CF00060000FBE9093600067CEEEEFFAE0D5CFA4
:101D0000808191818737974709F05ECEA8958091B1
:101D100060008861809360008091D50180936000AD
:101D2000EE3F2AE0F20789F08091FE0A9091FF0AC7
:101D30009183808349CE808191818737980751F2C2
:101D40009093FF0A8093FE0AC5CF1092FF0A10926B
:101D5000FE0A3ACE0E949A04DC0112960D911C9163
:101D60000115110509F4E8CED801ED91FC9101901F
:101D7000F081E02DBE016B5E7F4FC8010995811196
:101D800023CEF80100851185EBCF181619060CF447
:101D90001BCED2CEF1E0FF12BECE66EA77E004CFD2
:101DA0001F920F920FB60F9211242F933F938F9390
:101DB0009F93AF93BF938091C9019091CA01A09165
:101DC000CB01B091CC013091C80123E0230F2D3716
:101DD00058F50196A11DB11D2093C8018093C9013A
:101DE0009093CA01A093CB01B093CC018091CD0117
:101DF0009091CE01A091CF01B091D0010196A11D8B
:101E0000B11D8093CD019093CE01A093CF01B093EB
:101E1000D001BF91AF919F918F913F912F910F90E2
:101E20000FBE0F901F90189526E8230F0296A11D54
:101E3000B11DD2CF1F920F920FB60F9211242F9384
:101E40003F934F935F936F937F938F939F93AF9342
:101E5000BF93EF93FF9380919B0190919C01A09180
:101E60009D01B0919E01892B8A2B8B2B09F440C0D8
:101E700080919A0181110BC088B190E4892788B9BB
:101E800080919901882319F088B1805888B9809190
:101E90009B0190919C01A0919D01B0919E0118160B
:101EA00019061A061B069CF480919B0190919C01D7
:101EB000A0919D01B0919E010197A109B109809364
:101EC0009B0190939C01A0939D01B0939E01FF9173
:101ED000EF91BF91AF919F918F917F916F915F91A2
:101EE0004F913F912F910F900FBE0F901F9018951B
:101EF0000E94DF06ECCFEF92FF920F931F93CF93D8
:101F0000DF93F82E192FE62E042F81E0860F880F1D
:101F10000E942F0583E00E942F05CF2DD12FEC0EBC
:101F2000FD2EF11CCE15DF05B9F007FF13C0FE0131
:101F300084910E942F05182F80E00E942F05812395
:101F400021968111EFCFDF91CF911F910F91FF90DB
:101F5000EF9008958881EDCF81E0F5CFE7EEF5E0D1
:101F60001382128288EE93E0A0E0B0E08483958330
:101F7000A683B78385E791E0918380838FEF9FEFFE
:101F800095878487E7E4F6E01382128287E891E080
:101F90009183808386E194E0909346068093450682
:101FA00080E090E8909344068093430646983E9ADA
:101FB00047983F9A0895789484B5826084BD84B52B
:101FC000816084BD85B5826085BD85B5816085BD34
:101FD00080916E00816080936E00109281008091EC
:101FE0008100826080938100809181008160809374
:101FF00081008091800081608093800080919100B9
:102000008260809391008091910081608093910023
:10201000809190008160809390008091C1008460E5
:102020008093C1008091C10082608093C100809143
:10203000C10081608093C1008091C3008160809362
:10204000C3008091C00082608093C0008091C20074
:1020500081608093C20080917A00846080937A00CE
:1020600080917A00826080937A0080917A0081600A
:1020700080937A0080917A00806880937A00109231
:10208000E6011092D6011092D8018091D7008160AC
:102090008093D70080EA8093D80089B5806189BD9C
:1020A00089B5826089BD09B400FEFDCF61E070E0B2
:1020B00080E090E00E94E6058091D8008F7C8061EE
:1020C0008093D8008091E000807F8093E000809131
:1020D000E1008E7E8093E1008DE08093E200559ACE
:1020E000209A81EC80937C0085B1806F85B984B1A2
:1020F000877E84B984B1876E84B95E9A5F988AB10D
:10210000806D8AB9769A6E9881B3806F81BB899809
:1021100080B38D7080BB80E58CBD81E08DBD85E096
:1021200090E00E94B1075F9A85E090E00E94B107BD
:102130005E985C98ECE5F6E084918EBD00000DB4ED
:1021400007FEFDCF319626E0E936F207A9F75C9A43
:1021500081E88093640080916500816080936500D0
:102160000E94B50A0E94B60787FF15C05C9885EAF1
:102170008EBD00000DB407FEFDCF5C9A2E982F98FF
:102180002D988091640080628093640081E083BF19
:10219000889513BEFCCF0E94B60782FF48C02D98D9
:1021A0000E94B60784788438E1F40E94AF0788EC77
:1021B00090E00E94B1072F9882E090E00E946216A2
:1021C0008F3F29F06FEF82E090E00E946A1684EF63
:1021D00091E00E94B1072F9A0E94B6078478843854
:1021E000D9F30E94B60784718431E1F40E94AF07ED
:1021F00088EC90E00E94B1072E9882E090E00E9467
:102200006216882329F060E082E090E00E946A165E
:1022100084EF91E00E94B1072E9A0E94B607847164
:102220008431D9F388EC90E00E94B107B4CF0E94CA
:10223000AF0782E090E00E942D0C882309F44DC086
:102240003E9A3F9A81E080939F0181E090E00E9456
:102250002D0C382F3470932E81FF10C031112E9821
:10226000C1EFDFEF08E010E0B8E58B2E0E94B60763
:1022700086FF38C02E9A2F9A0E94AF0782E390E023
:102280000E94B1070E94B6078111F8CF81E28093C6
:1022900000010E94C40A5CE1452E512C66E1662EC5
:1022A000712C76E3272E312C8FB7F8944091C90119
:1022B0005091CA016091CB017091CC018FBF809188
:1022C000A001882309F4CFC01092A00180E090E023
:1022D000892B51F30E940000DECF10929F013E989F
:1022E0003F98B3CF992029F0C430D10511F42E9A2C
:1022F0002F9881E00E9419049E01D7FF04C0222775
:1023000033272C1B3D0B27703327CE01D7FD0796B3
:10231000A3E095958795AA95E1F7D7FF05C00197AA
:10232000A801421B530B9A01BC017695762F6627B4
:102330007795679569517E4FF12CE12C3801621A2F
:10234000730A8E3F5FEF950709F43DC08E9CD00164
:102350008F9CB00D112450E040E0A455BA4F5B01B2
:10236000E0E8AE0EB11C8F3F980791F0FD01E40F3D
:10237000F51FE4916B01C40ED51EF0E02F01022E73
:1023800001C0440C0A94EAF7F60154884528448AAF
:102390002115310599F0FD01E40FF51FE491650168
:1023A000C40ED51EF0E02F01062C02C055944794B0
:1023B0000A94E2F7F60154884528448A4F5F5F4F3C
:1023C0004835510581F6019660587F4FEA94EF2811
:1023D00009F045C00E94B50A8FE090E00E94B10765
:1023E0002196C931D10509F041CF992011F02F9ADA
:1023F0002D9880E991E00E94B1070E94AF0781E02B
:1024000090E00E942D0C80FF39CF8AE090E00E947E
:102410002D0C9FEF980F9E3F08F030CF22E330E065
:102420003093C4012093C30128E330E03093C2010C
:102430002093C101CBE0D0E0682F87E496E00E94B2
:10244000230ACE010E942D0C2196C131D105A1F79E
:102450000E94B50A88EE93E00E94B1070FCFEE24E8
:10246000E394F12C6ECF8091A101242F281B822FA1
:1024700090910001291748F48F5F891708F026CF43
:1024800081E083BF889513BE21CFC1E0C093A00136
:102490004093A1018091A5019091A601019690938E
:1024A000A6018093A5018091A3018093A2010E94BF
:1024B000B6078093A3018091C70181112DC00E94AE
:1024C000C40A44E150E05093C4014093C30182E147
:1024D00090E09093C2018093C1018AE796E00E9448
:1024E0008F0A88E190E09093C4018093C30188E251
:1024F00090E09093C2018093C10189E696E00E942A
:102500008F0A0E94B50A8CEF0E94AA0A882309F458
:10251000DDCEC093C701DACED0910201DF3F09F4CE
:10252000E9C2C091A401CF5FC093A4010E94C40A74
:102530005092C4014092C3011092C2011092C10195
:1025400082E497E00E948F0A54E0D59FF0011124A5
:10255000E45CFE4FE381EA3008F00AC1F0E0ED549C
:10256000FD4E0C94FC16BD12FD124913C1130D143F
:1025700034147714A414C9143F1589E290E09093A1
:10258000C4018093C3018CE090E09093C2018093DA
:10259000C1018EE896E00E948F0A48E062E170E097
:1025A0008CE090E00E9433080C2F0F7710E028E0B9
:1025B0004EE065E270E0C8010E94050841E063E278
:1025C00070E0C80103960E94D60741E063E270E024
:1025D000C8010A960E94D60782E390E09093C40156
:1025E0008093C30184E390E09093C2018093C10182
:1025F00089E896E00E948F0ABBC05092C4014092C5
:10260000C3018CE090E09093C2018093C10187E9FF
:1026100096E00E948F0A8C2F869503E3081B10E03A
:1026200078018CE0E80EF11C97014AE350E0B80114
:1026300080E490E00E94FB08970146E450E0B70177
:102640008AE390E00E94FB08980140E450E0B70163
:1026500086E490E00E94FB082EE049E0B7018CE39D
:1026600090E00E94050841E06AE370E08BE390E0AF
:102670000E94BE0741E06CE370E083E490E00E94BA
:10268000BE0741E069E370E088E490E00E94BE0785
:102690006FC08C2F90E0880F991F6CE870E00E944B
:1026A000E8168C018AE290E09093C4018093C30104
:1026B0008CE090E09093C2018093C10185EA96E09E
:1026C0000E948F0A68019DE0C91AD1084BE164E2BB
:1026D00070E0C6010E9428047801E9E0EE1AF108D2
:1026E00043E160E270E0C7010E94280443E168E230
:1026F00070E0C7010E94280420E230E0A70164E2F4
:1027000070E0C6010E94FB084801F9E08F0E911CA1
:1027100058012DE0A20EB11C20E230E0A40164E2D9
:1027200070E0C5010E94FB0828E230E0A70164E2E6
:1027300070E0C6010E94FB0828E230E0A40164E2D8
:1027400070E0C5010E94FB0845E06FE170E0C80140
:102750000E94330841E069E270E0C80108970E94D6
:10276000D60741E069E270E0C80108960E94D607EA
:102770000E94B50ACB3508F4A9CD8FEF80930201F2
:10278000A5CD88E190E09093C4018093C3018CE0D3
:1027900090E09093C2018093C1018EEA96E00E947E
:1027A0008F0AC3FB112710F922E144E16EE170E0CA
:1027B00086E390E00E94050827E04CE067E170E0C6
:1027C0008AE390E00E94050836E0139FA0011124DF
:1027D000445D5F4F2CE130E063E270E086E390E01F
:1027E0000E94FB082AEF2103A00111244C5A5F4FDD
:1027F0002CE130E063E270E08AE490E00E94FB08A4
:1028000041E06AE170E08DE390E00E94BE0741E0A4
:102810006AE170E083E490E039CFC2FD05C081E059
:102820000E94B80A109201015092C4014092C30163
:102830007092C2016092C10189EC96E00E948F0AF9
:102840008FE190E09093C4018093C3018AE290E00D
:102850009093C2018093C1018CEB96E00E948F0A95
:1028600081E08093010184CF7092C4016092C30122
:102870008CE090E09093C2018093C10186ED96E0D8
:102880000E948F0A0C2F10E07801EE0CFF1C6701EC
:1028900038EFC31A3EEFD30A22E2822E912C3AE39C
:1028A000A32EB12CC801B4010E94E8168D5E282F1A
:1028B00030E0C701B5010E94E8168D5D41E0B90125
:1028C00090E00E94D6074BE0E40EF11C095F1F4F19
:1028D000CE14DF0439F78C2F68E10E94C816492F07
:1028E00064E270E080E490E00E94330841CF8BE125
:1028F00090E09093C4018093C3018CE090E09093AA
:10290000C2018093C1018AEE96E00E948F0A53E0D3
:10291000C59FC001112466E770E00E94E8169093FD
:10292000C4018093C301E5E0CE9FC001112468E19A
:1029300070E00E94E816845E90E09093C20180935C
:10294000C10187EE96E056CE26E240E762E170E0F4
:1029500088E090E00E9405088DE290E09093C40129
:102960008093C3010AE110E01093C2010093C101FA
:1029700088E097E00E948F0A1093C4010093C3017E
:102980008AE290E09093C2018093C10188EF96E0C3
:1029900031CE86E290E09093C4018093C3018CE035
:1029A00090E09093C2018093C10185E197E00E947D
:1029B0008F0A4EE16AE170E081E390E00E94280412
:1029C0004EE161E370E081E390E00E94280440E181
:1029D0006EE170E08DE290E00E94DF0740E16EE181
:1029E00070E082E590E00E94DF0741E06EE170E078
:1029F00081E390E00E947F0942E06EE170E08EE4A6
:102A000090E00E947F0944E06DE270E08EE490E087
:102A10000E947F0948E06DE270E081E390E00E944F
:102A20007F0906E310E044E062E270E0C8010E9422
:102A3000DF070F5F1F4F0A331105A9F706E410E007
:102A400044E062E270E0C8010E94DF070F5F1F4FA1
:102A50000A341105A9F74FE06CE270E089E390E0D9
:102A60000E94280480E390E09093C4018093C30106
:102A70003092C2012092C1018FE097E0BBCD7092ED
:102A8000C4016092C30120E130E03093C201209381
:102A9000C10183E397E00E948F0A2CE048E362E2E1
:102AA00070E084E290E00E9405088C2F64E30E94AD
:102AB000C81686E2E82EF12C092F10E00A5D1F4FA0
:102AC000E016F10654F448E064E270E0C7010E94A9
:102AD000DF073FEFE31AF30AF3CF44E150E05093EE
:102AE000C4014093C3013092C2012092C10180E22F
:102AF00097E080CD80E80E94AA0AC82F882319F0A9
:102B000080E00E94D00A80E10E94AA0AD82F882380
:102B100021F081E00E94D00ACD2F80E20E94AA0A13
:102B2000D82F882321F082E00E94D00ACD2F80E4A4
:102B30000E94AA0AD82F882321F083E00E94D00A9D
:102B4000CD2F88E00E94AA0AD82F882321F084E0A4
:102B50000E94D00ACD2F84E00E94AA0A882309F49B
:102B600049C085E00E94D00A0E94C40A1092C401A4
:102B70001092C3011092C2011092C10181E597E049
:102B80000E948F0A8091A5019091A6016FE070E0EC
:102B90000E94D41660FD04C08FE497E00E948F0A63
:102BA0000091C601802F0D3008F08CE0102F181B0B
:102BB0001092C4011092C30180E190E09093C20191
:102BC0008093C101C12FD0E0C955DE4F101750F5D9
:102BD000E9916FE3E63020F4F0E0EC59FE4F6081BC
:102BE00087E496E00E94230A83E597E00E948F0A1B
:102BF0001F5FECCFC111B8CF8091C601882309F4C3
:102C0000B3CF8091C5018A3518F48F5F8093C501D9
:102C10008091C5018A3508F4A7CF1092C6011092A1
:102C2000C501A2CF1092C4011092C301E8E3F0E005
:102C3000F093C201E093C10187E597E00E948F0AFB
:102C4000E7EBF1E060E0819181116F5F21EC31E011
:102C50002E173F07C1F770E090E080E04AE00E9445
:102C6000DF0B85E597E00E948F0A4AE06AE070E09A
:102C700080E090E00E94DF0B8091C6018823F9F08C
:102C80008091C5018823D9F044E750E05093C401F6
:102C90004093C301E8E3F0E0F093C201E093C10187
:102CA00027E730E0281B3109C9016EE170E00E947E
:102CB000E81670E090E080E04AE00E94DF0B0E949E
:102CC000B50A04CBF999FECF92BD81BDF89A992738
:102CD00080B50895262FF999FECF1FBA92BD81BD08
:102CE00020BD0FB6F894FA9AF99A0FBE019608958E
:102CF000052E97FB1EF400940E948F1657FD07D0F7
:102D00000E94971607FC03D04EF40C948F16509532
:102D10004095309521953F4F4F4F5F4F08959095C7
:102D20008095709561957F4F8F4F9F4F0895A1E2D9
:102D30001A2EAA1BBB1BFD010DC0AA1FBB1FEE1F35
:102D4000FF1FA217B307E407F50720F0A21BB30B80
:102D5000E40BF50B661F771F881F991F1A9469F7FC
:102D600060957095809590959B01AC01BD01CF0158
:102D70000895A29FB001B39FC001A39F700D811D54
:102D80001124911DB29F700D811D1124911D089574
:102D9000991B79E004C0991F961708F0961B881FAD
:102DA0007A95C9F780950895AA1BBB1B51E107C00E
:102DB000AA1FBB1FA617B70710F0A61BB70B881FCB
:102DC000991F5A95A9F780959095BC01CD0108955A
:102DD00097FB072E16F4009407D077FD09D00E94C8
:102DE000D41607FC05D03EF4909581959F4F089529
:102DF000709561957F4F0895EE0FFF1F0590F49138
:082E0000E02D0994F894FFCFC6
:102E08001001FFFFFFFFFF00E100000000000005C8
:102E18000504040203040005000000010102030286
:102E28000305040202040405000100010001050471
:102E3800050402030203040400000004390103002E
:102E480036010301320104022E0104032A0104049D
:102E5800260104052301030619010A0715010408C0
:102E68000F01060955444C52414200C180810000BF
:102E78000000000000AE041906CF04C4041505D3F1
:102E880004F10400000000230A9E06DC0BDB0B00A3
:00000001FF
