:100000000C94ED030C9415040C9415040C94150435
:100010000C9415040C9415040C9415040C941504FC
:100020000C9415040C9415040C943E0B0C94AD0B1D
:100030000C9415040C9415040C9415040C941504DC
:100040000C9415040C9415040C9415040C941504CC
:100050000C9415040C9415040C9415040C94DF0DE9
:100060000C9415040C9415040C9415040C941504AC
:100070000C9415040C9415040C9415040C9415049C
:100080000C94290E0C9415040C9415040C9415046E
:100090000C9415040C9415040C9415040C9415047C
:1000A0000C9415040C9415040C9415040000000025
:1000B000003E5B4F5B3E3E6B4F6B3E1C3E7C3E1CEE
:1000C000183C7E3C181C577D571C1C5E7F5E1C0034
:1000D000183C1800FFE7C3E7FF0018241800FFE7EB
:1000E000DBE7FF30483A060E2629792926407F05AE
:1000F0000507407F05253F5A3CE73C5A7F3E1C1CC4
:1001000008081C1C3E7F14227F22145F5F005F5F83
:1001100006097F017F006689956A6060606060946F
:10012000A2FFA29408047E040810207E2010080874
:100130002A1C08081C2A08081E101010100C1E0C7F
:100140001E0C30383E3830060E3E0E060000000011
:100150000000005F00000007000700147F147F14F8
:10016000242A7F2A1223130864623649562050003D
:1001700008070300001C2241000041221C002A1C29
:100180007F1C2A08083E0808008070300008080814
:100190000808000060600020100804023E51494534
:1001A0003E00427F400072494949462141494D3352
:1001B0001814127F1027454545393C4A49493141B9
:1001C000211109073649494936464949291E000087
:1001D00014000000403400000008142241141414DC
:1001E0001414004122140802015909063E415D59C8
:1001F0004E7C1211127C7F494949363E41414122D1
:100200007F4141413E7F494949417F090909013EFA
:10021000414151737F0808087F00417F4100204021
:10022000413F017F081422417F404040407F021C33
:10023000027F7F0408107F3E4141413E7F0909094A
:10024000063E4151215E7F09192946264949493216
:1002500003017F01033F4040403F1F2040201F3FDC
:100260004038403F63140814630304780403615961
:10027000494D43007F4141410204081020004141A3
:10028000417F04020102044040404040000307084F
:100290000020545478407F2844443838444444284B
:1002A000384444287F385454541800087E090218F2
:1002B000A4A49C787F0804047800447D400020407A
:1002C000403D007F1028440000417F40007C0478BE
:1002D00004787C080404783844444438FC18242406
:1002E0001818242418FC7C08040408485454542486
:1002F00004043F44243C4040207C1C2040201C3C03
:100300004030403C44281028444C9090907C4464F9
:10031000544C44000836410000007700000041368C
:10032000080002010204023C2623263C1EA1A16112
:10033000123A4040207A3854545559215555794144
:100340002154547841215554784020545579400C1B
:100350001E527212395555555939545454593955FC
:100360005454580000457C410002457D420001453F
:100370007C40F0292429F0F0282528F07C545545AC
:10038000002054547C547C0A097F4932494949323F
:100390003248484832324A4848303A4141217A3A54
:1003A00042402078009DA0A07D39444444393D401E
:1003B00040403D3C24FF2424487E4943662B2FFCCB
:1003C0002F2BFF0929F620C0887E09032054547979
:1003D000410000447D413048484A32384040227A4A
:1003E000007A0A0A727D0D19317D2629292F2826C7
:1003F0002929292630484D402038080808080808CF
:100400000808382F10C8ACBA2F102834FA00007B27
:10041000000008142A142222142A1408950022002D
:1004200095AA005500AAAA55AA55AA000000FF00E7
:10043000101010FF00141414FF001010FF00FF1024
:1004400010F010F0141414FC001414F700FF000056
:10045000FF00FF1414F404FC141417101F10101FD5
:10046000101F1414141F00101010F0000000001FC3
:10047000101010101F10101010F010000000FF10CE
:100480001010101010101010FF10000000FF1400CA
:1004900000FF00FF00001F10170000FC04F41414FC
:1004A0001710171414F404F40000FF00F7141414C8
:1004B00014141414F700F7141414171410101F1048
:1004C0001F141414F4141010F010F000001F101F6B
:1004D0000000001F14000000FC140000F010F010D9
:1004E00010FF10FF141414FF141010101F00000050
:1004F00000F010FFFFFFFFFFF0F0F0F0F0FFFFFF54
:100500000000000000FFFF0F0F0F0F0F38444438AA
:10051000447C2A2A3E147E02020606027E027E02E5
:1005200063554941633844443C04407E201E200604
:10053000027E020299A5E7A5991C2A492A1C4C7241
:1005400001724C304A4D4D303048784830BC625AC8
:10055000463D3E494949007E0101017E2A2A2A2A58
:100560002A44445F444440514A444040444A514034
:100570000000FF0103E080FF000008086B6B0836F5
:1005800012362436060F090F060000181800000066
:100590001010003040FF0101001F01011E00191D55
:1005A0001712003C3C3C3C0000000000F0F89C8E20
:1005B0008783878E9CF8F00000FEFF03030303038C
:1005C000070EFCF80000FEFF0303030303070EFC05
:1005D000F80000FFFF00000000000000FFFF000027
:1005E000FEFF8383838383C7EE7C380000F8FC0E14
:1005F00007030303070EFCF800003F7FE0C0808084
:10060000C0E07F3FFFFF01010101010101FFFF0089
:1006100000FFFF0C0C0C0C1C3E77E3C100007FFFB9
:10062000C0C0C0C0C0E0703F1F00001F3F70E0C0EE
:10063000C0C0E0703F1F00007FFFC1C1C1C1C1E366
:10064000773E1C00001F3F70E0C0C0C0E0703F1F3D
:10065000000000000001FFFF01000000D5F08D1434
:10066000A1C881CFD9F1AF200050726573732041CA
:100670006E7920427574746F6E0053454352455431
:1006800020434F4E534F4C45006D656F77004D6FC3
:100690006F6E2043617400526F636B6574204C6110
:1006A000756E63680054696E792055464F00446149
:1006B0006E63696E6720526F626F74004A555354BF
:1006C000204B494444494E470053595354454D200B
:1006D0004552524F520053637265656E20457870E3
:1006E0006C6F73696F6E003E5F00437572736F725B
:1006F00020457363617065005365637265742044BF
:10070000657620526F6F6D0048492044414E004885
:10071000454C4C4F0048756E6920526F626F7400F3
:1007200054686520636F6E736F6C6520736D696CC0
:1007300065730031302F313020434F4D504C4554BC
:10074000450053454352455420464F554E44005FA3
:10075000003E0020002F31300053656372657473D2
:100760002000080B00020202000009040000010240
:1007700002000005240010010524010101042402E7
:100780000605240600010705810310004009040145
:1007900000020A000000070502024000000705836E
:1007A000024000000403090412010002EF020140AC
:1007B0004123368000010102030141726475696EB4
:1007C0006F204C4C430041726475696E6F204C651C
:1007D0006F6E6172646F0000BD0E11241FBECFEFFB
:1007E000DAE0DEBFCDBF11E0A0E0B1E0EAEFFBE26E
:1007F00002C005900D92A039B107D9F726E0A0E913
:10080000B1E001C01D92AA34B207E1F713E0CDEECA
:10081000D3E004C02197FE010E94F515CC3ED1071C
:10082000C9F70E94EA0E0C94FB150C94000080910D
:100830009F010895E6EEF1E0A0E0B8E000800EBC74
:100840008111012C1197A0FDFDCF0192B9F70DB4D4
:100850000895480F592F511D1416150684F5803838
:1008600091056CF597FF02C090E080E0413851059A
:1008700014F040E850E0481BFB01E770FF2721E03F
:1008800001C0220FEA95EAF777FF02C0695F7F4F48
:10089000FB0133E0F595E7953A95E1F7F695FE2FE4
:1008A000EE27F795E795E80FF91FEA51FE4F415003
:1008B00030F08191DF011197822B8C93F8CF08954E
:1008C000FC018091E501882311F13FB7F89482E0A3
:1008D0008093E9002091F200822F90E0181619060B
:1008E00014F481E090E0882339F0289844E640939E
:1008F000E4014091F1004083222339F02091F2007D
:10090000211103C02BE62093E8003FBF08958FEF2D
:100910009FEF08952FB7F89483E08093E9009091BA
:10092000E800892F807295FF04C09091F20080E466
:10093000891B2FBF08958091DC0181110DC082E0D9
:100940008093D80184E08093D9011092DB0110924A
:10095000DA0181E08093DC0188ED91E00895CF9386
:10096000DF931F92CDB7DEB76983DC01ED91FC9177
:100970000280F381E02D41E050E0BE016F5F7F4FC8
:1009800009950F90DF91CF91089583E08093E9005E
:100990008091F200882319F08AE38093E80008959B
:1009A0000E948A0490E00895CF93DF931F92CDB701
:1009B000DEB7FC018485958597FD08C02FEF3FEFDA
:1009C000358724870F90DF91CF910895CE0101964E
:1009D0000E946004019719F4898190E0F3CF8FEFB2
:1009E0009FEFF0CF0F931F93CF93DF931F92CDB75D
:1009F000DEB78C01FC018485958597FF0BC0CE0185
:100A000001960E946004019771F4898190E0F801D9
:100A100095878487F801848595850F90DF91CF9124
:100A20001F910F9108958FEF9FEFF1CFFC01848507
:100A3000958597FD0BC09FB7F89482E08093E900FD
:100A40008091F2009FBF90E0019608959FB7F894BF
:100A500082E08093E9008091F2009FBF90E00895CA
:100A60004091D2015091D3012091D0013091D10118
:100A700042175307B4F49091E8009570E1F3909118
:100A8000E80092FD19C08093F1008091D20190910D
:100A9000D30101968F739927892B19F48EEF8093D8
:100AA000E8008091D2019091D30101969093D301F7
:100AB0008093D20181E0089580E00895DF92EF9263
:100AC000FF920F931F93CF93DF93D82E8A01EB01F0
:100AD0007B01E40EF51ECE15DF0559F0D7FE12C0DE
:100AE000FE0184910E94300521968111F4CF0FEF11
:100AF0001FEFC801DF91CF911F910F91FF90EF90F1
:100B0000DF9008958881EECF0F931F93CF93DF93EB
:100B10001F92CDB7DEB782E0898342E450E062E6FF
:100B200077E080E80E945E050E949B04DC0112963B
:100B30000D911C910115110589F0D801ED91FC91E1
:100B40000280F381E02DBE016F5F7F4FC8010995E0
:100B500097FD04C0F80100851185ECCF89810F90C5
:100B6000DF91CF911F910F910895615030F0209146
:100B7000F100FC0120830196F8CF289884E6809349
:100B8000E40108953FB7F8948091CC019091CD0194
:100B9000A091CE01B091CF0126B5A89B05C02F3FF3
:100BA00019F00196A11DB11D3FBFBA2FA92F982F93
:100BB0008827BC01CD01620F711D811D911D42E08E
:100BC000660F771F881F991F4A95D1F708958F9256
:100BD0009F92AF92BF92CF92DF92EF92FF926B0102
:100BE0007C010E94C2054B015C01C114D104E104E7
:100BF000F104B9F00E94C205681979098A099B09B4
:100C0000683E73408105910580F321E0C21AD10846
:100C1000E108F10888EE880E83E0981EA11CB11C43
:100C2000E4CFFF90EF90DF90CF90BF90AF909F9078
:100C30008F9008958F929F92AF92BF92CF92DF9242
:100C4000EF92FF920F931F93CF93DF936C017B0181
:100C50008A0180910E01882309F45CC08091E5012E
:100C6000882309F457C08091D70180FF05C0809187
:100C7000E00082608093E000E801B12C8AEFA82EAA
:100C800093E0892E2AE3922E209711F4BB20D9F10C
:100C90000E948A0481110AC0AA94AA20D9F161E0B5
:100CA00070E080E090E00E94E705EECF8C171D0613
:100CB00011F00CF08C2F9FB7F8948092E9002091EE
:100CC000E80025FD02C09FBFDFCF282F30E0C21B08
:100CD000D30BF701815020F041914093F100FACFFE
:100CE000E20EF31EBB2021F09092E800B12CEBCF76
:100CF0008091E80085FDE7CF9092E800BB24B39493
:100D0000209709F3F3CF5D9884E68093D6011016FF
:100D100011063CF081E090E0F6019383828310E0BD
:100D200000E0C801DF91CF911F910F91FF90EF90EC
:100D3000DF90CF90BF90AF909F908F900895AF922B
:100D4000BF92CF92DF92EF92FF920F931F93CF93B8
:100D5000DF936C017B018B01040F151FEB015E011A
:100D6000AE18BF08C017D10759F06991D601ED91AF
:100D7000FC910190F081E02DC6010995892B79F74E
:100D8000C501DF91CF911F910F91FF90EF90DF9000
:100D9000CF90BF90AF90089520919801E091960177
:100DA000F0919701CF01029690939701809396015D
:100DB000222319F08591949108958081918108955D
:100DC000CF92DF92EF92FF92CF93DF930E94CC06F7
:100DD000811520E8920791F4809171008D7F8093B6
:100DE0007100109291004698479810929501DF91FA
:100DF000CF91FF90EF90DF90CF90089521E0209366
:100E00009501813020E8920751F4809193019091EF
:100E1000940190939701809396010E94CC0697FDD0
:100E200005C020919201222309F454C02091910120
:100E3000211150C021E020939901EC01DF77209728
:100E400009F04BC081E080939A0146983FE9C32E98
:100E50003FE0D32EE12CF12CCAEFD0E0E091440624
:100E6000F09145060995811103C081E080939A01B4
:100E700080919901882329F080919A01882309F4AF
:100E80003FC047980E94CC060097F1F19C01DE011B
:100E90000E94B215DC01CB0129E0B595A795979585
:100EA00087952A95D1F7109290002AE0209391001F
:100EB000D0929900C092980080939B0190939C01DE
:100EC000A0939D01B0939E018091710082608093F8
:100ED00071008DCF10929901B0CF9E0150E040E09B
:100EE00060E472E48FE090E00E94711569017A017C
:100EF00081E0C81AD108E108F10810929A01AECF3A
:100F00004699BFCF479ABECF8FEF9FEFDC01CBCF83
:100F10002D9A0895BC0190E080E00C94E7058FB114
:100F20008095807F669B88601C9B8460089520E18B
:100F300091E061FD94E060FD990F62FD9295687FFC
:100F4000269FD0011124A80FAA51BE4F8C9140FFBB
:100F500003C0892B8C93089590958923FBCF80380B
:100F6000910528F46034710510F40C9497070895E6
:100F7000EF92FF920F931F93CF93DF937C018B012E
:100F8000040F111DEB0177FF02C0D0E0C0E0C801E3
:100F90000134110514F080E490E0C817D9073CF43F
:100FA00041E0BE01C7010E94AF072196F0CFDF915B
:100FB000CF911F910F91FF90EF900895EF92FF92C4
:100FC0000F931F93CF93DF937C018B01C42FD22FFC
:100FD0006034710514F40E942904B8016D0F711D6D
:100FE000615071096034710524F44C2FC7010E94CF
:100FF00029044D2FB801C7010E94B807C7018C0F03
:10100000911D4D2FB8010197DF91CF911F910F9145
:10101000FF90EF900C94B8072F923F924F925F92FF
:101020006F927F928F929F92AF92BF92CF92DF92F8
:10103000EF92FF920F931F93CF93DF9300D000D0D6
:10104000CDB7DEB77C018B01242F30E03C832B83AE
:1010500081E090E05C01A21AB30A19013194219455
:101060003108220C331CB901600F711F41E0C70128
:101070000E94AF07B8018B819C81681B790B41E00E
:10108000C7010E94AF0741E0B8018B819C818E0DA2
:101090009F1D0E94AF0741E0B801C7012B813C8131
:1010A000821B930B0E94AF07D12CC12C81E090E0F2
:1010B0009A8389832B813C81C216D3060CF05DC0D4
:1010C000B7FC09C0215031093C832B8332E0230E49
:1010D000311CA20CB31C8FEFC81AD80A29813A819F
:1010E0002E5F3F4F3A832983A20EB31E37016C0C4B
:1010F0007D1C41E08B809C80800E911EB401C30159
:101100000E94AF0727014C185D0841E0B401C201FD
:101110000E94AF0741E048018B819C81881A990A9F
:10112000B401C3010E94AF0741E0B401C2010E94B3
:10113000AF074601800E911E41E0B4016B807C80B8
:101140006E0C7F1CC3010E94AF0741E0B401270170
:101150002B813C81421A530AC2010E94AF07480109
:101160008C189D0841E0B401C3010E94AF0741E023
:10117000B401C2010E94AF079DCF0F900F900F9056
:101180000F90DF91CF911F910F91FF90EF90DF9023
:10119000CF90BF90AF909F908F907F906F905F9017
:1011A0004F903F902F9008952F923F924F925F92D1
:1011B0006F927F928F929F92AF92BF92CF92DF9267
:1011C000EF92FF920F931F93CF93DF93EC018B016C
:1011D0007A016901C61AD70AD7FE03C0D194C19417
:1011E000D10847018C1A9D0A97FE03C091948194FF
:1011F00091088C149D0454F49E2D8F2D7901292F74
:10120000382F9C2F8D2FE801092F182FEC16FD0683
:1012100054F4902F812F8901292F382F9C2F8D2F47
:10122000E701E92EF82E17012C1A3D0A2901401A70
:10123000510A57FE03C0519441945108310137FEC1
:1012400003C08FEF681A780A759467948FEF0217BE
:1012500013070CF481E0A82E880FBB08EC16FD06DE
:10126000A4F041E0BE01C8018C149D0414F0B80143
:10127000CE010E94AF076418750877FE04C00A0DFE
:101280001B1D620C731C2196E9CFDF91CF911F913A
:101290000F91FF90EF90DF90CF90BF90AF909F9015
:1012A0008F907F906F905F904F903F902F90089518
:1012B0002F923F924F925F926F927F928F929F9266
:1012C000AF92BF92CF92DF92EF92FF920F931F9354
:1012D000CF93DF937C016B0188248394912CD0E021
:1012E000C0E004E010E098EF692E77247A942DEFA7
:1012F000A22EBB24BA94842F8470582E842F82701F
:10130000482E842F8870382E4170242E219682E03A
:10131000880E911CA80CB91C552091F041E0B80131
:101320006C0D7D1DC7018C0F9D1F0E94AF0741E012
:10133000B6016C0F7D1FC8018E0D9F1D0E94AF0767
:10134000442091F041E0B601601B710BC7018C0F86
:101350009D1F0E94AF0741E0B6016C1B7D0BC801C9
:101360008E0D9F1D0E94AF07332091F041E0B60122
:101370006C0F7D1FC701801B910B0E94AF0741E0DE
:10138000B8016C0D7D1DC7018C1B9D0B0E94AF0722
:10139000222091F041E0B6016C1B7D0BC701801B40
:1013A000910B0E94AF0741E0B601601B710BC701B2
:1013B0008C1B9D0B0E94AF07C017D10754F4B7FCDC
:1013C000A5CF0150110982E0680E711CA60CB71C54
:1013D0009DCFDF91CF911F910F91FF90EF90DF9004
:1013E000CF90BF90AF909F908F907F906F905F90C5
:1013F0004F903F902F9008956F927F928F929F927F
:10140000AF92BF92CF92DF92EF92FF920F931F9312
:10141000CF93DF936D3089F0C090B801D090B901BF
:101420006A30E1F41092BB011092BA0188E0C80E54
:10143000D11CD092B901C092B80181E090E0DF9157
:10144000CF911F910F91FF90EF90DF90CF90BF90C1
:10145000AF909F908F907F906F9008956090010162
:10146000E090BA01F090BB01E5E06E9FE00111242D
:10147000C455DF4F570100E010E0053029F0CE01E0
:101480000196FE011491EC01460188E0782E412F6F
:10149000417010FD1BC0662021F0B401C5010E94FF
:1014A000AF0716957A94FFEF8F1A9F0A7110EFCF4E
:1014B0000F5F8FEFA81AB80A0630F1F6E6E0EE0EDD
:1014C000F11CF092BB01E092BA01B7CF462DE5CFF7
:1014D0000F931F93CF93DF938C01D0E0C0E0F8010E
:1014E000EC0FFD1F6491662341F086E496E00E94B4
:1014F000FC09892B11F02196F2CFCE01DF91CF911B
:101500001F910F9108959091A201982329F4909131
:10151000A301982381E009F480E0089580E00C9411
:101520001A04E6EEF1E081118FEF0024819381939C
:10153000819381930394D1F7089580E00E94910AEA
:101540001092B9011092B8011092BB011092BA0129
:1015500008950F931F93CF93DF939091B701E7EA1C
:10156000F1E09031F0F5E92FF0E0E955FE4F80838E
:101570009F5F9093B701809190018F5F809390015E
:101580005091B7016CEB71E0ACE3B1E090E080E02A
:10159000182FFB012191BF01211119C012964C9106
:1015A00012975417A0F0E52FE41BF0E0E955FE4F29
:1015B00030E020E02417F0F40191CD91DC911197F7
:1015C000C20FD31FC8812F5F3F4F0C1799F30196AD
:1015D00014968A309105E1F6DF91CF911F910F911A
:1015E00008959181919321E0E63BF207D1F7809332
:1015F000B601C1CFFC01E454FE4F21E020831093DB
:1016000002011092A401880F991F880F991FFC01F5
:10161000E45CFE4F8381F3E28F9FC001112484526A
:101620009F4F209171002D7F20937100109298019F
:1016300026E336E03093970120939601309394018E
:1016400020939301909337068093360686E490E0CA
:10165000909339068093380680E090E890933B069B
:1016600080933A06DF91CF911F910F910C94E00681
:10167000089590E080E008950C945B151F920F92FE
:101680000FB60F9211248F939F938091E100909158
:10169000E100937F9093E10083FF0FC01092E90077
:1016A00091E09093EB001092EC0092E39093ED00A8
:1016B0001092E50198E09093F00082FF22C093E041
:1016C0009093E9009091F200992319F09AE3909396
:1016D000E8009091D601992341F09091D601915064
:1016E0009093D601911101C05D9A9091E4019923E4
:1016F00041F09091E40191509093E401911101C067
:10170000289A84FF18C08091E2008E7E81608093C9
:10171000E2008091E1008F7E8093E1008091D7010B
:101720008E7E80618093D7019F918F910F900FBE25
:101730000F901F90189580FFF7CF8091E2008E7E6A
:1017400080618093E2008091E1008E7E8093E100D1
:101750008091D7018E7E8160E5CF1F920F920FB6E8
:101760000F921124CF92DF92EF92FF920F931F936B
:101770002F933F934F935F936F937F938F939F9399
:10178000AF93BF93EF93FF93CF93DF93CDB7DEB7C4
:101790006C97DEBFCDBF1092E9008091E80083FF17
:1017A00025C068E0CE0145960E94B50582EF809382
:1017B000E8008D8987FF39C09091E80090FFFCCF49
:1017C000982F907609F034C19E894F89588D2F89C2
:1017D000F88C911131C0803861F58091D5018093EA
:1017E000F1001092F1008EEF8093E8006C960FB636
:1017F000F894DEBF0FBECDBFDF91CF91FF91EF9187
:10180000BF91AF919F918F917F916F915F914F9118
:101810003F912F911F910F91FF90EF90DF90CF900C
:101820000F900FBE0F901F9018959EEF9093E800B9
:10183000C7CF1092F100D5CF913059F48111D3CF99
:101840004130510581F68091D5018D7F8093D5017E
:10185000CACF933049F48111C6CF4130510519F6F2
:101860008091D5018260F2CF953041F48091E800FB
:1018700080FFFCCF20682093E300B5CF963009F0BD
:10188000A9C00B8D1C8D22E01092E9001092D301AB
:101890001092D201F2122EC01092D1011092D001FA
:1018A0000E9484051F8299E09983FA8291E09E83C9
:1018B00090EA98879AEF99872091D2013091D301CD
:1018C000275F3F4F3C832B838D831092E90010925A
:1018D000D3011092D2011093D1010093D00149E0BD
:1018E00050E0BE016F5F7F4F80E00E945E050E9466
:1018F000840579CF1093D1010093D0010E949B04FD
:10190000DC0112960D911C910115110509F451C1CC
:10191000D801ED91FC910480F581E02DBE016B5E54
:101920007F4FC8010995009709F03EC1F801008575
:101930001185EACFF3E0FF120EC08F89882309F4E6
:1019400040C0823061F440E860E186EC97E00E949C
:101950008A0E811148CF81E28093EB0047CF81301E
:1019600029F440E86BE08AEB97E0F1CF833099F7F8
:101970000E949B04DC011296ED90FC908E010F5F9B
:101980001F4F6801E114F10479F0D701ED91FC914A
:101990000680F781E02DB801C7010995080F111DD8
:1019A000F701E084F184EECFD8011C92F60101909A
:1019B0000020E9F73197BF016C197D0940E0C601AD
:1019C000C6CF64EA77E0FB01449150E080E80E94D2
:1019D0005E0509CF973009F4BECF983021F481E03D
:1019E0008093F10000CF993009F0FDCE837009F0AB
:1019F000B2CFEBE6F1E081E031E096E321912223E2
:101A000071F08093E9003093EB00DF0111972C9186
:101A10002093EC009093ED008F5F873079F78EE78D
:101A20008093EA001092EA008F898093E501DBCE73
:101A30008B8D9C8D1092E9001092D3011092D201EF
:101A40009093D1018093D001898D811192C08E89AC
:101A50009D89913A49F4813209F07DCF47E050E009
:101A600067E071E080E0B3CF913209F074CF833248
:101A700069F48F89988DB0E0A0E080930301909382
:101A80000401A0930501B0930601ADCE803269F444
:101A90008091E80082FFFCCF67E087E091E00E9440
:101AA000B5058BEF8093E8009ECE823209F09BCE85
:101AB0008F8980930E01EEEFFFE7859194918B3F24
:101AC0009C4D51F1E0E0F8E0809107019091080110
:101AD000A0910901B0910A01803B9440A105B10594
:101AE000F1F480910E0180FD1AC0EE3F8AE0F80704
:101AF00089F587E797E791838083809160008093E1
:101B0000D40188E19BE00FB6F894A895809360001B
:101B10000FBE9093600067CEEEEFFAE0D5CF8081E4
:101B200091818737974709F05ECEA8958091600034
:101B30008861809360008091D40180936000EE3FC3
:101B40002AE0F20789F08091FE0A9091FF0A9183C2
:101B5000808349CE808191818737980751F2909395
:101B6000FF0A8093FE0AC5CF1092FF0A1092FE0A68
:101B70003ACE0E949B04DC0112960D911C91011536
:101B8000110509F4E8CED801ED91FC910190F081A6
:101B9000E02DBE016B5E7F4FC8010995811123CEF8
:101BA000F80100851185EBCF181619060CF41BCE31
:101BB000D2CEF1E0FF12BECE68EA77E004CF1F92EA
:101BC0000F920FB60F9211242F933F938F939F93F1
:101BD000AF93BF938091C8019091C901A091CA01B0
:101BE000B091CB013091C70123E0230F2D3758F579
:101BF0000196A11DB11D2093C7018093C801909348
:101C0000C901A093CA01B093CB018091CC019091FE
:101C1000CD01A091CE01B091CF010196A11DB11DC2
:101C20008093CC019093CD01A093CE01B093CF01CE
:101C3000BF91AF919F918F913F912F910F900FBEC8
:101C40000F901F90189526E8230F0296A11DB11D35
:101C5000D2CF1F920F920FB60F9211242F933F9362
:101C60004F935F936F937F938F939F93AF93BF93A4
:101C7000EF93FF9380919B0190919C01A0919D0116
:101C8000B0919E01892B8A2B8B2B09F440C0809147
:101C90009A0181110BC088B190E4892788B980919D
:101CA0009901882319F088B1805888B980919B01E7
:101CB00090919C01A0919D01B0919E01181619066A
:101CC0001A061B069CF480919B0190919C01A091A7
:101CD0009D01B0919E010197A109B10980939B01DB
:101CE00090939C01A0939D01B0939E01FF91EF9171
:101CF000BF91AF919F918F917F916F915F914F9124
:101D00003F912F910F900FBE0F901F9018950E943A
:101D1000E006ECCFEF92FF920F931F93CF93DF93E8
:101D2000F82E192FE62E042F81E0860F880F0E94CF
:101D3000300583E00E943005CF2DD12FEC0EFD2E13
:101D4000F11CCE15DF05B9F007FF13C0FE01849129
:101D50000E943005182F80E00E94300581232196D3
:101D60008111EFCFDF91CF911F910F91FF90EF90F5
:101D700008958881EDCF81E0F5CFE6EEF5E013829E
:101D8000128288EE93E0A0E0B0E084839583A6837E
:101D9000B78385E791E0918380838FEF9FEF9587ED
:101DA0008487E6E4F6E01382128287E891E091836B
:101DB000808387E194E0909345068093440680E019
:101DC00090E8909343068093420646983E9A47983F
:101DD0003F9A0895CF93DF93CDB7DEB7A1970FB6A3
:101DE000F894DEBF0FBECDBF789484B5826084BD09
:101DF00084B5816084BD85B5826085BD85B581600F
:101E000085BD80916E00816080936E00109281008C
:101E10008091810082608093810080918100816047
:101E20008093810080918000816080938000809108
:101E300091008260809391008091910081608093F5
:101E40009100809190008160809390008091C1000A
:101E500084608093C1008091C10082608093C10042
:101E60008091C10081608093C1008091C300816036
:101E70008093C3008091C00082608093C0008091F5
:101E8000C20081608093C20080917A008460809358
:101E90007A0080917A00826080937A0080917A0043
:101EA000816080937A0080917A00806880937A00C4
:101EB0001092E5011092D5011092D7018091D700C0
:101EC00081608093D70080EA8093D80089B58061D3
:101ED00089BD89B5826089BD09B400FEFDCF61E08E
:101EE00070E080E090E00E94E7058091D8008F7C50
:101EF00080618093D8008091E000807F8093E00033
:101F00008091E1008E7E8093E1008DE08093E2007D
:101F1000559A209A81EC80937C0085B1806F85B9B9
:101F200084B1877E84B984B1876E84B95E9A5F98E4
:101F30008AB1806D8AB9769A6E9881B3806F81BBC1
:101F4000899880B38D7080BB80E58CBD81E08DBDAC
:101F500085E090E00E948A075F9A85E090E00E9409
:101F60008A075E985C98ECE5F6E089E696E02491B5
:101F70002EBD00000DB407FEFDCF31968E179F07D2
:101F8000B1F75C9A81E8809364008091650081607C
:101F9000809365000E948E0A0E948F0787FF15C0FC
:101FA0005C9885EA8EBD00000DB407FEFDCF5C9AFB
:101FB0002E982F982D988091640080628093640001
:101FC00081E083BF889513BEFCCF0E948F0782FFFC
:101FD00048C02D980E948F0784788438E1F40E94CD
:101FE000880788EC90E00E948A072F9882E090E0B2
:101FF0000E945B158F3F29F06FEF82E090E00E9416
:10200000631584EF91E00E948A072F9A0E948F0740
:1020100084788438D9F30E948F0784718431E1F485
:102020000E94880788EC90E00E948A072E9882E040
:1020300090E00E945B15882329F060E082E090E048
:102040000E94631584EF91E00E948A072E9A0E94F5
:102050008F0784718431D9F388EC90E00E948A075D
:10206000B4CF0E94880782E090E00E943C0B882356
:1020700009F44BC03E9A3F9A81E080939F0181E032
:1020800090E00E943C0B282F2470722E81FF11C01B
:1020900021112E9801EF1FEF58E0E52EF12C68E595
:1020A000662E0E948F0786FF35C02E9A2F9A0E94B7
:1020B000880782E390E00E948A070E948F078111BF
:1020C000F8CF81E2809300010E949D0AACE12A2EA4
:1020D000312CFCE04F2E512C8FB7F8944091C80161
:1020E0005091C9016091CA017091CB018FBF80915D
:1020F000A001882309F4D1C01092A00180E090E0F3
:10210000892B51F30E940000E4CF10929F013E986A
:102110003F98B5CF772029F00430110511F42E9A9D
:102120002F9881E00E941A04980117FF04C022270B
:102130003327201B310B27703327C80117FD079663
:1021400043E0959587954A95E1F717FF05C00197FC
:10215000A701421B530B9A01BC017695762F662787
:10216000779567956A517E4FB0E0A0E02701421A4B
:10217000530A8E3F5FEF950709F43FC06A9E5001F6
:102180006B9EB00C112450E040E0F501E455FA4F8D
:102190005F014B01F0E88F0E911C8F3F980791F083
:1021A000F501E40FF51FE4916B01C40ED51EF0E0BC
:1021B0001F01022E01C0220C0A94EAF7F6013488AE
:1021C0002328248A2115310599F0F501E40FF51F24
:1021D000E4916401C40ED51EF0E01F01042C02C07E
:1021E000359427940A94E2F7F60134882328248A48
:1021F0004F5F5F4F4835510581F6019660587F4F1C
:10220000119709F047C00E948E0A8FE090E00E946B
:102210008A070F5F1F4F0931110509F042CF772060
:1022200011F02F9A2D9880E991E00E948A070E9470
:10223000880781E090E00E943C0B80FF3ACF8AE063
:1022400090E00E943C0B9FEF980F9E3F08F031CF2B
:1022500022E330E03093BB012093BA0128E330E061
:102260003093B9012093B8010BE010E0682F86E4A9
:1022700096E00E94FC09C8010E943C0B0F5F1F4FB3
:102280000131110599F70E948E0A88EE93E00E94B1
:102290008A070FCFA1E0B0E06CCF8091A101F42FAD
:1022A000F81B8F2F90910001F91748F48F5F891761
:1022B00008F024CF81E083BF889513BE1FCF11E0C3
:1022C0001093A0014093A1018091A5019091A601D6
:1022D00001969093A6018093A5018091A30180931C
:1022E000A2010E948F078093A3018091C6018111F2
:1022F0002DC00E949D0A44E150E05093BB014093E1
:10230000BA0182E190E09093B9018093B8018AE725
:1023100096E00E94680A88E190E09093BB01809368
:10232000BA0188E290E09093B9018093B80189E600
:1023300096E00E94680A0E948E0A8CEF0E94830A2F
:10234000882309F4DBCE1093C601D8CE0091020198
:102350000F3F09F4F0C21091A4011F5F1093A40174
:102360000E949D0A3092BB012092BA011092B901DD
:102370001092B80182E497E00E94680A54E0059F39
:10238000F0011124E45CFE4FE381EA3008F006C15D
:10239000F0E0E353FE4E0C94F515D71116126112BE
:1023A000D71221134A138E13B913DF135B1489E27A
:1023B00090E09093BB018093BA015092B901409292
:1023C000B8018EE896E00E94680A48E062E170E099
:1023D0008CE090E00E940C08812F8F77E82EF12C82
:1023E00028E04EE065E270E0C7010E94DE0741E0B0
:1023F00063E270E0C70103960E94AF0741E063E229
:1024000070E0C7010A960E94AF0782E390E09093C4
:10241000BB018093BA0184E390E09093B90180936B
:10242000B80189E896E00E94680AB8C03092BB0102
:102430002092BA015092B9014092B80187E996E022
:102440000E94680A812F8695E3E3EE2EE81AF12CAC
:1024500067018CE0C80ED11C96014AE350E0B70139
:1024600080E490E00E94D408960146E450E0B60172
:102470008AE390E00E94D408970140E450E0B6015E
:1024800086E490E00E94D4082EE049E0B6018CE397
:1024900090E00E94DE0741E06AE370E08BE390E0A9
:1024A0000E94970741E06CE370E083E490E00E94B3
:1024B000970741E069E370E088E490E00E949707A5
:1024C0006DC0812F90E0880F991F6CE870E00E942A
:1024D000E1157C018AE290E09093BB018093BA0100
:1024E0005092B9014092B80185EA96E00E94680ACC
:1024F00057019DE0A91AB1084BE164E270E0C50103
:102500000E9429046701A9E0CA1AD10843E160E2E8
:1025100070E0C6010E94290443E168E270E0C60150
:102520000E94290420E230E0A60164E270E0C501C7
:102530000E94D4083701B9E06B0E711C4701EDE031
:102540008E0E911C20E230E0A30164E270E0C40131
:102550000E94D40828E230E0A60164E270E0C501E0
:102560000E94D40828E230E0A30164E270E0C401D4
:102570000E94D40845E06FE170E0C7010E940C089A
:1025800041E069E270E0C70108970E94AF0741E0AF
:1025900069E270E0C70108960E94AF070E948E0AA8
:1025A0001B3508F4ABCD8FEF80930201A7CD88E1F6
:1025B00090E09093BB018093BA015092B901409290
:1025C000B8018EEA96E00E94680A13FB002700F922
:1025D00022E144E16EE170E086E390E00E94DE07D4
:1025E00027E04CE067E170E08AE390E00E94DE07BC
:1025F000F6E00F9FA0011124445D5F4F2CE130E015
:1026000063E270E086E390E00E94D4082AEF2003A2
:10261000A00111244C5A5F4F2CE130E063E270E0DE
:102620008AE490E00E94D40841E06AE170E08DE322
:1026300090E00E94970741E06AE170E083E490E057
:102640003DCF12FD05C081E00E94910A1092010168
:102650003092BB012092BA0146E150E05093B9019B
:102660004093B80189EC96E00E94680A8FE190E0FF
:102670009093BB018093BA018AE290E09093B901F4
:102680008093B8018CEB96E00E94680A81E0809309
:10269000010184CF86E190E09093BB018093BA0161
:1026A0005092B9014092B80186ED96E00E94680A06
:1026B000E12EF12C3701660C771C630198EFC91AE3
:1026C0009EEFD90A52E2852E912C6AE3A62EB12CF8
:1026D000C701B4010E94E1158D5E282F30E0C301CF
:1026E000B5010E94E1158D5D41E0B90190E00E94C5
:1026F000AF07ABE06A0E711CB7E0EB0EF11CC6141D
:10270000D70431F7812F68E10E94C115492F64E297
:1027100070E080E490E00E940C0840CF8BE190E0F4
:102720009093BB018093BA015092B9014092B801D5
:102730008AEE96E00E94680AE3E01E9FC001112421
:1027400066E770E00E94E1159093BB018093BA01A7
:10275000F5E01F9FC001112468E170E00E94E115BF
:10276000845E90E09093B9018093B80187EE96E083
:102770005ACE26E240E762E170E088E090E00E94F5
:10278000DE078DE290E09093BB018093BA013AE1BD
:10279000E32EF12CF092B901E092B80188E097E0C5
:1027A0000E94680AF092BB01E092BA018AE290E0CE
:1027B0009093B9018093B80188EF96E034CE46E259
:1027C00050E05093BB014093BA015092B90140923E
:1027D000B80185E197E00E94680A4EE16AE170E085
:1027E00081E390E00E9429044EE161E370E081E31F
:1027F00090E00E94290440E16EE170E08DE290E0FB
:102800000E94B80740E16EE170E082E590E00E942E
:10281000B80741E06EE170E081E390E00E94580962
:1028200042E06EE170E08EE490E00E94580944E0DE
:102830006DE270E08EE490E00E94580948E06DE29D
:1028400070E081E390E00E94580926E3E22EF12C2B
:1028500044E062E270E0C7010E94B8075FEFE51A4A
:10286000F50A8AE3E816F10499F796E4E92EF12CCB
:1028700044E062E270E0C7010E94B8079FEFE91AE6
:10288000F90AAAE4EA16F10499F74FE06CE270E065
:1028900089E390E00E94290480E390E09093BB01DB
:1028A0008093BA01E6E3F0E0F093B901E093B80158
:1028B0008FE097E0B8CD46E150E05093BB014093E4
:1028C000BA0180E190E09093B9018093B80183E36D
:1028D00097E00E94680A2CE048E362E270E084E23C
:1028E00090E00E94DE07812F64E30E94C11586E21A
:1028F000C82ED12CE92EF12C96E2E90EF11CCE1453
:10290000DF0454F448E064E270E0C6010E94B807B6
:10291000AFEFCA1ADA0AF3CFE4E1F0E0F093BB01BB
:10292000E093BA0146E350E05093B9014093B801F7
:1029300080E297E078CD80E80E94830A882319F02E
:1029400080E00E94A90A80E10E94830A882319F08E
:1029500081E00E94A90A80E20E94830A882319F07C
:1029600082E00E94A90A80E40E94830A882319F069
:1029700083E00E94A90A88E00E94830A882319F054
:1029800084E00E94A90A84E00E94830A882319F047
:1029900085E00E94A90A0E949D0A1092BB01109234
:1029A000BA011092B9011092B80181E597E00E9436
:1029B000680A8091A5019091A6016FE070E00E94E5
:1029C000CD1560FD04C08FE497E00E94680AE09096
:1029D000B7018E2D5CE05E1508F48CE0FE2CF81A31
:1029E0001092BB011092BA0180E190E09093B9017E
:1029F0008093B8010F2D10E009551E4FFE14A0F46E
:102A0000D801ED918D016FE3E63020F4F0E0EC5950
:102A1000FE4F608186E496E00E94FC0983E597E022
:102A20000E94680AF394EACF1092BB011092BA0197
:102A3000E8E3F0E0F093B901E093B80189E597E0AD
:102A40000E94680AECEBF1E020E0819181112F5F98
:102A500046EC51E04E175F07C1F730E050E040E030
:102A600019A28E010F5D1F4FCA01B9012AE030E0A3
:102A700040E050E00E949015605DD8016E938D019A
:102A8000211531054105510579F7109769F0FD01D0
:102A900001900020E9F73197AF014A1B5B0BBD01A4
:102AA00086E496E00E949F0685E597E00E94680A0A
:102AB0000E948E0A23CBF999FECF92BD81BDF89A70
:102AC000992780B50895262FF999FECF1FBA92BD98
:102AD00081BD20BD0FB6F894FA9AF99A0FBE0196FF
:102AE0000895052E97FB1EF400940E94881557FD4B
:102AF00007D00E94901507FC03D04EF40C94881563
:102B000050954095309521953F4F4F4F5F4F089519
:102B100090958095709561957F4F8F4F9F4F089549
:102B2000A1E21A2EAA1BBB1BFD010DC0AA1FBB1FD1
:102B3000EE1FFF1FA217B307E407F50720F0A21B43
:102B4000B30BE40BF50B661F771F881F991F1A94B0
:102B500069F760957095809590959B01AC01BD01DA
:102B6000CF010895A29FB001B39FC001A39F700D34
:102B7000811D1124911DB29F700D811D1124911D85
:102B80000895991B79E004C0991F961708F0961BC9
:102B9000881F7A95C9F780950895AA1BBB1B51E140
:102BA00007C0AA1FBB1FA617B70710F0A61BB70BBD
:102BB000881F991F5A95A9F780959095BC01CD0162
:102BC000089597FB072E16F4009407D077FD09D0DF
:102BD0000E94CD1507FC05D03EF4909581959F4F3E
:102BE0000895709561957F4F0895EE0FFF1F059032
:0A2BF000F491E02D0994F894FFCF52
:102BFA001001FFFFFFFFFF00E100000000000005D9
:102C0A000504040203040005000000010102030296
:102C1A000305040202040405000100010001050481
:102C2A00050402030203040400000004390103003E
:102C3A0036010301320104022E0104032A010404AD
:102C4A00260104052301030619010A0715010408D0
:102C5A000F01060955444C52414200C180810000CF
:102C6A000000000000AF041A06D004C5041605D4FB
:102C7A0004F20400000000FC099F06390B380B001F
:00000001FF
