:100000000C94D9040C9401050C9401050C94010581
:100010000C9401050C9401050C9401050C94010548
:100020000C9401050C9401050C941C0D0C948B0D83
:100030000C9401050C9401050C9401050C94010528
:100040000C9401050C9401050C9401050C94010518
:100050000C9401050C9401050C9401050C94BD0F42
:100060000C9401050C9401050C9401050C940105F8
:100070000C9401050C9401050C9401050C940105E8
:100080000C9407100C9401050C9401050C940105C7
:100090000C9401050C9401050C9401050C940105C8
:1000A0000C9401050C9401050C940105000000005E
:1000B000003E5B4F5B3E3E6B4F6B3E1C3E7C3E1CEE
:1000C000183C7E3C181C577D571C1C5E7F5E1C0034
:1000D000183C1800FFE7C3E7FF0018241800FFE7EB
:1000E000DBE7FF30483A060E2629792926407F05AE
:1000F0000507407F05253F5A3CE73C5A7F3E1C1CC4
:1001000008081C1C3E7F14227F22145F5F005F5F83
:1001100006097F017F006689956A6060606060946F
:10012000A2FFA29408047E040810207E2010080874
:100130002A1C08081C2A08081E101010100C1E0C7F
:100140001E0C30383E3830060E3E0E060000000011
:100150000000005F00000007000700147F147F14F8
:10016000242A7F2A1223130864623649562050003D
:1001700008070300001C2241000041221C002A1C29
:100180007F1C2A08083E0808008070300008080814
:100190000808000060600020100804023E51494534
:1001A0003E00427F400072494949462141494D3352
:1001B0001814127F1027454545393C4A49493141B9
:1001C000211109073649494936464949291E000087
:1001D00014000000403400000008142241141414DC
:1001E0001414004122140802015909063E415D59C8
:1001F0004E7C1211127C7F494949363E41414122D1
:100200007F4141413E7F494949417F090909013EFA
:10021000414151737F0808087F00417F4100204021
:10022000413F017F081422417F404040407F021C33
:10023000027F7F0408107F3E4141413E7F0909094A
:10024000063E4151215E7F09192946264949493216
:1002500003017F01033F4040403F1F2040201F3FDC
:100260004038403F63140814630304780403615961
:10027000494D43007F4141410204081020004141A3
:10028000417F04020102044040404040000307084F
:100290000020545478407F2844443838444444284B
:1002A000384444287F385454541800087E090218F2
:1002B000A4A49C787F0804047800447D400020407A
:1002C000403D007F1028440000417F40007C0478BE
:1002D00004787C080404783844444438FC18242406
:1002E0001818242418FC7C08040408485454542486
:1002F00004043F44243C4040207C1C2040201C3C03
:100300004030403C44281028444C9090907C4464F9
:10031000544C44000836410000007700000041368C
:10032000080002010204023C2623263C1EA1A16112
:10033000123A4040207A3854545559215555794144
:100340002154547841215554784020545579400C1B
:100350001E527212395555555939545454593955FC
:100360005454580000457C410002457D420001453F
:100370007C40F0292429F0F0282528F07C545545AC
:10038000002054547C547C0A097F4932494949323F
:100390003248484832324A4848303A4141217A3A54
:1003A00042402078009DA0A07D39444444393D401E
:1003B00040403D3C24FF2424487E4943662B2FFCCB
:1003C0002F2BFF0929F620C0887E09032054547979
:1003D000410000447D413048484A32384040227A4A
:1003E000007A0A0A727D0D19317D2629292F2826C7
:1003F0002929292630484D402038080808080808CF
:100400000808382F10C8ACBA2F102834FA00007B27
:10041000000008142A142222142A1408950022002D
:1004200095AA005500AAAA55AA55AA000000FF00E7
:10043000101010FF00141414FF001010FF00FF1024
:1004400010F010F0141414FC001414F700FF000056
:10045000FF00FF1414F404FC141417101F10101FD5
:10046000101F1414141F00101010F0000000001FC3
:10047000101010101F10101010F010000000FF10CE
:100480001010101010101010FF10000000FF1400CA
:1004900000FF00FF00001F10170000FC04F41414FC
:1004A0001710171414F404F40000FF00F7141414C8
:1004B00014141414F700F7141414171410101F1048
:1004C0001F141414F4141010F010F000001F101F6B
:1004D0000000001F14000000FC140000F010F010D9
:1004E00010FF10FF141414FF141010101F00000050
:1004F00000F010FFFFFFFFFFF0F0F0F0F0FFFFFF54
:100500000000000000FFFF0F0F0F0F0F38444438AA
:10051000447C2A2A3E147E02020606027E027E02E5
:1005200063554941633844443C04407E201E200604
:10053000027E020299A5E7A5991C2A492A1C4C7241
:1005400001724C304A4D4D303048784830BC625AC8
:10055000463D3E494949007E0101017E2A2A2A2A58
:100560002A44445F444440514A444040444A514034
:100570000000FF0103E080FF000008086B6B0836F5
:1005800012362436060F090F060000181800000066
:100590001010003040FF0101001F01011E00191D55
:1005A0001712003C3C3C3C0000000000F0F89C8E20
:1005B0008783878E9CF8F00000FEFF03030303038C
:1005C000070EFCF80000FEFF0303030303070EFC05
:1005D000F80000FFFF00000000000000FFFF000027
:1005E000FEFF8383838383C7EE7C380000F8FC0E14
:1005F00007030303070EFCF800003F7FE0C0808084
:10060000C0E07F3FFFFF01010101010101FFFF0089
:1006100000FFFF0C0C0C0C1C3E77E3C100007FFFB9
:10062000C0C0C0C0C0E0703F1F00001F3F70E0C0EE
:10063000C0C0E0703F1F00007FFFC1C1C1C1C1E366
:10064000773E1C00001F3F70E0C0C0C0E0703F1F3D
:10065000000000000001FFFF01000000D5F08D1434
:10066000A1C881CFD9F1AF2000202041424F55547D
:10067000003E2041424F55540055502F444F574E95
:100680002020413A53454C454354002020504C41D2
:1006900059003E20504C4159005345435245542087
:1006A000434F4E534F4C45003130207365637265A4
:1006B00074207375727072697365732E006275743D
:1006C000746F6E7320616E6420646973636F766506
:1006D00072004578706572696D656E742077697413
:1006E00068207468650066696E64696E6720686971
:1006F0006464656E20636F6465732E0041207469C5
:100700006E792067616D652061626F757400534575
:100710004352455420434F4E534F4C450041424FA6
:100720005554005365637265747320582F3130003F
:1007300050726F67726573733A0053454352455464
:1007400020464F554E440041206D6174636820730C
:10075000686F77733A0054727920627574746F6EA3
:100760002073657175656E6365732E0046696E64EE
:1007700020616C6C20313020736563726574732E58
:1007800000474F414C00413A4E4558542020423AD0
:100790004241434B0045616368207072657373206A
:1007A0006275696C64732E0041203D204120202039
:1007B000202042203D2042005249474854203D20FD
:1007C00052004C45465420203D204C00444F574E8B
:1007D00020203D2044005550202020203D20550061
:1007E000434F4E54524F4C5300423A4241434B0008
:1007F00033207365636F6E64732069646C652E00CB
:10080000496E7075747320636C65617220616674E3
:100810006572004D69782073686F727420616E6430
:10082000206C6F6E672E0052657065617420627572
:1008300074746F6E732E00547279207061747465D5
:10084000726E732E00576174636820796F75722021
:10085000696E707574732E00484F5720544F2050A6
:100860004C4159006D656F77004D6F6F6E2043618D
:100870007400526F636B6574204C61756E63680021
:1008800054696E792055464F0044616E63696E6706
:1008900020526F626F74004A555354204B494444B0
:1008A000494E470053595354454D204552524F52DB
:1008B0000053637265656E204578706C6F73696F65
:1008C0006E003E5F00437572736F72204573636103
:1008D0007065005365637265742044657620526FBD
:1008E0006F6D0048492044414E0048454C4C4F0034
:1008F00048756E6920526F626F740054686520639A
:100900006F6E736F6C6520736D696C657300313049
:100910002F313020434F4D504C45544500534543F3
:1009200052455420464F554E44005F003E00200083
:100930002F00536563726574732000080B00020278
:10094000020000090400000102020000052400105A
:100950000105240101010424020605240600010703
:1009600005810310004009040100020A000000078D
:10097000050202400000070583024000000403094D
:100980000412010002EF0201404123368000010100
:1009900002030141726475696E6F204C4C43004143
:1009A000726475696E6F204C656F6E6172646F0062
:1009B0009B1011241FBECFEFDAE0DEBFCDBF11E0E8
:1009C000A0E0B1E0EAECF3E302C005900D92A0399B
:1009D000B107D9F726E0A0E9B1E001C01D92AD341E
:1009E000B207E1F714E0C9EDD4E004C02197FE019D
:1009F0000E94DD19C83DD107C9F70E94C8100C94A8
:100A0000E3190C94000080919F010895E9EEF1E054
:100A1000A0E0B8E000800EBC8111012C1197A0FD70
:100A2000FDCF0192B9F70DB40895480F592F511D0C
:100A30001416150684F5803891056CF597FF02C0F1
:100A400090E080E04138510514F040E850E0481B48
:100A5000FB01E770FF2721E001C0220FEA95EAF7CA
:100A600077FF02C0695F7F4FFB0133E0F595E795A3
:100A70003A95E1F7F695FE2FEE27F795E795E80F03
:100A8000F91FE751FE4F415030F08191DF0111977E
:100A9000822B8C93F8CF0895FC018091E801882384
:100AA00011F13FB7F89482E08093E9002091F200C1
:100AB000822F90E01816190614F481E090E0882344
:100AC00039F0289844E64093E7014091F1004083D3
:100AD000222339F02091F200211103C02BE620934C
:100AE000E8003FBF08958FEF9FEF08952FB7F89468
:100AF00083E08093E9009091E800892F807295FF50
:100B000004C09091F20080E4891B2FBF089580916A
:100B1000DF0181110DC082E08093DB0184E08093CE
:100B2000DC011092DE011092DD0181E08093DF0193
:100B30008BED91E00895CF93DF931F92CDB7DEB791
:100B40006983DC01ED91FC910280F381E02D41E0AD
:100B500050E0BE016F5F7F4F09950F90DF91CF91FD
:100B6000089583E08093E9008091F200882319F0D2
:100B70008AE38093E80008950E94760590E0089546
:100B8000CF93DF931F92CDB7DEB7FC0184859585A7
:100B900097FD08C02FEF3FEF358724870F90DF9137
:100BA000CF910895CE0101960E944C05019719F44A
:100BB000898190E0F3CF8FEF9FEFF0CF0F931F93DA
:100BC000CF93DF931F92CDB7DEB78C01FC018485F4
:100BD000958597FF0BC0CE0101960E944C050197A9
:100BE00071F4898190E0F80195878487F801848504
:100BF00095850F90DF91CF911F910F9108958FEF01
:100C00009FEFF1CFFC018485958597FD0BC09FB7C1
:100C1000F89482E08093E9008091F2009FBF90E019
:100C2000019608959FB7F89482E08093E90080913F
:100C3000F2009FBF90E008954091D5015091D601F8
:100C40002091D3013091D40142175307B4F490910D
:100C5000E8009570E1F39091E80092FD19C080934F
:100C6000F1008091D5019091D60101968F7399275B
:100C7000892B19F48EEF8093E8008091D501909133
:100C8000D60101969093D6018093D50181E0089515
:100C900080E00895DF92EF92FF920F931F93CF931E
:100CA000DF93D82E8A01EB017B01E40EF51ECE15F1
:100CB000DF0559F0D7FE12C0FE0184910E941C0688
:100CC00021968111F4CF0FEF1FEFC801DF91CF9173
:100CD0001F910F91FF90EF90DF9008958881EECFE4
:100CE0000F931F93CF93DF931F92CDB7DEB782E0B0
:100CF000898342E450E06BE379E080E80E944A0691
:100D00000E948705DC0112960D911C9101151105B9
:100D100089F0D801ED91FC910280F381E02DBE01B4
:100D20006F5F7F4FC801099597FD04C0F8010085EA
:100D30001185ECCF89810F90DF91CF911F910F9199
:100D40000895615030F02091F100FC01208301965C
:100D5000F8CF289884E68093E70108953FB7F89488
:100D60008091CF019091D001A091D101B091D20199
:100D700026B5A89B05C02F3F19F00196A11DB11DF6
:100D80003FBFBA2FA92F982F8827BC01CD01620F32
:100D9000711D811D911D42E0660F771F881F991FED
:100DA0004A95D1F708958F929F92AF92BF92CF92BA
:100DB000DF92EF92FF926B017C010E94AE064B0125
:100DC0005C01C114D104E104F104B9F00E94AE0643
:100DD000681979098A099B09683E73408105910564
:100DE00080F321E0C21AD108E108F10888EE880EEC
:100DF00083E0981EA11CB11CE4CFFF90EF90DF9020
:100E0000CF90BF90AF909F908F9008958F929F92B8
:100E1000AF92BF92CF92DF92EF92FF920F931F9308
:100E2000CF93DF936C017B018A0180910E018823AF
:100E300009F45CC08091E801882309F457C08091CF
:100E4000DA0180FF05C08091E00082608093E000BD
:100E5000E801B12C8AEFA82E93E0892E2AE3922E86
:100E6000209711F4BB20D9F10E94760581110AC0A8
:100E7000AA94AA20D9F161E070E080E090E00E949D
:100E8000D306EECF8C171D0611F00CF08C2F9FB7F8
:100E9000F8948092E9002091E80025FD02C09FBFF0
:100EA000DFCF282F30E0C21BD30BF701815020F099
:100EB00041914093F100FACFE20EF31EBB2021F0E6
:100EC0009092E800B12CEBCF8091E80085FDE7CF50
:100ED0009092E800BB24B394209709F3F3CF5D9878
:100EE00084E68093D901101611063CF081E090E071
:100EF000F6019383828310E000E0C801DF91CF9177
:100F00001F910F91FF90EF90DF90CF90BF90AF9027
:100F10009F908F900895AF92BF92CF92DF92EF9201
:100F2000FF920F931F93CF93DF936C017B018B0193
:100F3000040F151FEB015E01AE18BF08C017D107E3
:100F400059F06991D601ED91FC910190F081E02D6D
:100F5000C6010995892B79F7C501DF91CF911F91C2
:100F60000F91FF90EF90DF90CF90BF90AF900895DA
:100F700020919801E0919601F0919701CF0102969E
:100F80009093970180939601222319F08591949173
:100F90000895808191810895CF92DF92EF92FF9220
:100FA000CF93DF930E94B807811520E8920791F450
:100FB000809171008D7F809371001092910046980E
:100FC000479810929501DF91CF91FF90EF90DF90BD
:100FD000CF90089521E020939501813020E8920779
:100FE00051F4809193019091940190939701809393
:100FF00096010E94B80797FD05C020919201222317
:1010000009F454C020919101211150C021E0209396
:101010009901EC01DF77209709F04BC081E08093C4
:101020009A0146983FE9C32E3FE0D32EE12CF12CE4
:10103000CAEFD0E0E0914706F0914806099581118A
:1010400003C081E080939A0180919901882329F05F
:1010500080919A01882309F43FC047980E94B807FD
:101060000097F1F19C01DE010E949A19DC01CB018D
:1010700029E0B595A795979587952A95D1F7109270
:1010800090002AE020939100D0929900C09298009D
:1010900080939B0190939C01A0939D01B0939E012E
:1010A000809171008260809371008DCF10929901C0
:1010B000B0CF9E0150E040E060E472E48FE090E049
:1010C0000E94591969017A0181E0C81AD108E10822
:1010D000F10810929A01AECF4699BFCF479ABECF82
:1010E0008FEF9FEFDC01CBCFEF92FF920F931F9317
:1010F000DC01E1E7F0E090819D7F90831092980100
:10110000E9E3F6E0F0939701E0939601F093940100
:10111000E0939301B183A0837383628355834483F7
:101120003783268311870087F386E2861F910F910C
:10113000FF90EF900C94CC072D9A0895BC0190E09D
:1011400080E00C94D3068FB18095807F669B886089
:101150001C9B8460089520E191E061FD94E060FDB6
:10116000990F62FD9295687F269FD0011124A80FE8
:10117000A751BE4F8C9140FF03C0892B8C930895DB
:1011800090958923FBCF8038910528F46034710550
:1011900010F40C94AB080895EF92FF920F931F93F5
:1011A000CF93DF937C018B01040F111DEB0177FFBF
:1011B00002C0D0E0C0E0C8010134110514F080E4A1
:1011C00090E0C817D9073CF441E0BE01C7010E9476
:1011D000C3082196F0CFDF91CF911F910F91FF901F
:1011E000EF900895EF92FF920F931F93CF93DF93A9
:1011F0007C018B01C42FD22F6034710514F40E943E
:101200001505B8016D0F711D6150710960347105CC
:1012100024F44C2FC7010E9415054D2FB801C701BA
:101220000E94CC08C7018C0F911D4D2FB80101976A
:10123000DF91CF911F910F91FF90EF900C94CC080C
:101240002F923F924F925F926F927F928F929F92D6
:10125000AF92BF92CF92DF92EF92FF920F931F93C4
:10126000CF93DF9300D000D0CDB7DEB77C018B01E8
:10127000242F30E03C832B8381E090E05C01A21AB4
:10128000B30A1901319421943108220C331CB9019D
:10129000600F711F41E0C7010E94C308B8018B8134
:1012A0009C81681B790B41E0C7010E94C30841E0A3
:1012B000B8018B819C818E0D9F1D0E94C30841E067
:1012C000B801C7012B813C81821B930B0E94C3088C
:1012D000D12CC12C81E090E09A8389832B813C81C1
:1012E000C216D3060CF05DC0B7FC09C0215031090D
:1012F0003C832B8332E0230E311CA20CB31C8FEFF6
:10130000C81AD80A29813A812E5F3F4F3A83298330
:10131000A20EB31E37016C0C7D1C41E08B809C80BB
:10132000800E911EB401C3010E94C30827014C180E
:101330005D0841E0B401C2010E94C30841E04801D8
:101340008B819C81881A990AB401C3010E94C30849
:1013500041E0B401C2010E94C3084601800E911E03
:1013600041E0B4016B807C806E0C7F1CC3010E9445
:10137000C30841E0B40127012B813C81421A530A82
:10138000C2010E94C30848018C189D0841E0B401C5
:10139000C3010E94C30841E0B401C2010E94C30816
:1013A0009DCF0F900F900F900F90DF91CF911F91D5
:1013B0000F91FF90EF90DF90CF90BF90AF909F90F4
:1013C0008F907F906F905F904F903F902F900895F7
:1013D0002F923F924F925F926F927F928F929F9245
:1013E000AF92BF92CF92DF92EF92FF920F931F9333
:1013F000CF93DF93EC018B017A016901C61AD70AFA
:10140000D7FE03C0D194C194D10847018C1A9D0A1C
:1014100097FE03C09194819491088C149D0454F418
:101420009E2D8F2D7901292F382F9C2F8D2FE8018C
:10143000092F182FEC16FD0654F4902F812F8901E7
:10144000292F382F9C2F8D2FE701E92EF82E170119
:101450002C1A3D0A2901401A510A57FE03C0519423
:1014600041945108310137FE03C08FEF681A780AA2
:10147000759467948FEF021713070CF481E0A82E80
:10148000880FBB08EC16FD06A4F041E0BE01C801C0
:101490008C149D0414F0B801CE010E94C308641896
:1014A000750877FE04C00A0D1B1D620C731C219683
:1014B000E9CFDF91CF911F910F91FF90EF90DF90D7
:1014C000CF90BF90AF909F908F907F906F905F90E4
:1014D0004F903F902F9008952F923F924F925F929E
:1014E0006F927F928F929F92AF92BF92CF92DF9234
:1014F000EF92FF920F931F93CF93DF937C016B01C9
:1015000088248394912CD0E0C0E004E010E098EFB0
:10151000692E77247A942DEFA22EBB24BA94842FBF
:101520008470582E842F8270482E842F8870382E15
:101530004170242E219682E0880E911CA80CB91CC3
:10154000552091F041E0B8016C0D7D1DC7018C0F55
:101550009D1F0E94C30841E0B6016C0F7D1FC801AA
:101560008E0D9F1D0E94C308442091F041E0B601FA
:10157000601B710BC7018C0F9D1F0E94C30841E0C7
:10158000B6016C1B7D0BC8018E0D9F1D0E94C30808
:10159000332091F041E0B6016C0F7D1FC701801B25
:1015A000910B0E94C30841E0B8016C0D7D1DC7017D
:1015B0008C1B9D0B0E94C308222091F041E0B601D4
:1015C0006C1B7D0BC701801B910B0E94C30841E07F
:1015D000B601601B710BC7018C1B9D0B0E94C308D9
:1015E000C017D10754F4B7FCA5CF0150110982E010
:1015F000680E711CA60CB71C9DCFDF91CF911F9177
:101600000F91FF90EF90DF90CF90BF90AF909F90A1
:101610008F907F906F905F904F903F902F900895A4
:101620006F927F928F929F92AF92BF92CF92DF92F2
:10163000EF92FF920F931F93CF93DF936D3089F05A
:10164000C090C301D090C4016A30E1F41092C60189
:101650001092C50188E0C80ED11CD092C401C0927E
:10166000C30181E090E0DF91CF911F910F91FF9036
:10167000EF90DF90CF90BF90AF909F908F907F9032
:101680006F90089560900101E090C501F090C6014F
:10169000E5E06E9FE0011124C455DF4F570100E0E3
:1016A00010E0053029F0CE010196FE011491EC0105
:1016B000460188E0782E412F417010FD1BC0662046
:1016C00021F0B401C5010E94C30816957A94FFEF7A
:1016D0008F1A9F0A7110EFCF0F5F8FEFA81AB80A09
:1016E0000630F1F6E6E0EE0EF11CF092C601E09253
:1016F000C501B7CF462DE5CF0F931F93CF93DF934F
:101700008C01D0E0C0E0F801EC0FFD1F649166236E
:1017100041F089E496E00E94100B892B11F021968C
:10172000F2CFCE01DF91CF911F910F91089590914B
:10173000A201982329F49091A301982381E009F450
:1017400080E0089580E00C940605E9EEF1E0811157
:101750008FEF002481938193819381930394D1F738
:10176000089580E00E94A50B1092C4011092C3015D
:101770001092C6011092C5010895EF92FF920F9347
:101780001F93CF93DF931092C7019091C801E9EAAC
:10179000F1E09031D8F5E92FF0E0E755FE4F808376
:1017A0009F5F9093C801809190018F5F809390011B
:1017B0005091C80169EB71E0ACE3B1E090E080E0EA
:1017C000182FFB012191BF0121111AC012964C91D3
:1017D00012975417A8F0E52FE41BF0E0E755FE4FF1
:1017E00030E020E0241708F0ACC00191CD91DC91ED
:1017F0001197C20FD31FC8812F5F3F4F0C1791F372
:10180000019614968A309105D9F618C0918191936A
:1018100091E0E83BF907D1F78093B801C4CFCAE55E
:10182000EC2EF12C04EE12E026E430E040E753E029
:101830006CE370E084E992E00E947408DF91CF913C
:101840001F910F91FF90EF900895BEE6EB2EF12CC3
:1018500000E113E026E430E04EEE51E066E470E093
:101860008AE491E0E9CFA6E4EA2EF12C07E215E044
:1018700023E230E050E040E062E370E08CED93E082
:10188000DBCFF0E5EF2EF12C08EB11E027E330E0A1
:101890004CED50E067E370E08CED90E0CDCFE0E5FB
:1018A000EE2EF12C10E000E020E530E042E550E0C3
:1018B00060E570E08EE690E0BFCF78E7E72EF12C90
:1018C00007E310E026E430E04CED50E063E270E026
:1018D00080E793E0B1CF6CE3E62EF12C00E113E05A
:1018E0002DE230E043E952E06DE270E08BE092E0FF
:1018F000A3CF58E7E52EF12C03E912E02AE530E00A
:101900004BE052E06AE570E088E891E095CF4AE567
:10191000E42EF12C08EB11E022E330E04AE252E041
:1019200062E370E088EB91E087CF3CE8E32EF12C96
:1019300007E114E02AE530E040E153E06AE570E0B9
:10194000D5CFFC01E754FE4F21E020831093020124
:101950001092A6011092C8011092C701880F991F1A
:10196000880F991FFC01E45CFE4FE381EA3008F028
:1019700065CFF0E0E254F34F0C94DD190F0C250C09
:10198000330C410C4F0C5D0C6B0C790C870C950CD7
:10199000089590E080E008958F929F92AF92BF9259
:1019A0000F931F93CF93DF93CDB7DEB7A1970FB6F9
:1019B000F894DEBF0FBECDBF19A2423008F44AE052
:1019C0008E010F5D1F4F842E912CB12CA12CA501EF
:1019D00094010E947819E62FB901CA01EA3044F552
:1019E000E05DD801EE938D01232B242B252B79F775
:1019F00090E080E0109769F0FD0101900020E9F788
:101A00003197AF014A1B5B0BBD0189E496E00E9450
:101A10008B07A1960FB6F894DEBF0FBECDBFDF9146
:101A2000CF911F910F91BF90AF909F908F9008958D
:101A3000E95CD7CF0C9443191F920F920FB60F9207
:101A400011248F939F938091E1009091E100937F07
:101A50009093E10083FF0FC01092E90091E0909312
:101A6000EB001092EC0092E39093ED001092E801ED
:101A700098E09093F00082FF22C093E09093E900F9
:101A80009091F200992319F09AE39093E8009091D5
:101A9000D901992341F09091D90191509093D901A6
:101AA000911101C05D9A9091E701992341F09091C5
:101AB000E70191509093E701911101C0289A84FFAA
:101AC00018C08091E2008E7E81608093E200809158
:101AD000E1008F7E8093E1008091DA018E7E80614B
:101AE0008093DA019F918F910F900FBE0F901F90FE
:101AF000189580FFF7CF8091E2008E7E8061809301
:101B0000E2008091E1008E7E8093E1008091DA0115
:101B10008E7E8160E5CF1F920F920FB60F92112437
:101B2000CF92DF92EF92FF920F931F932F933F93E9
:101B30004F935F936F937F938F939F93AF93BF93D5
:101B4000EF93FF93CF93DF93CDB7DEB76C97DEBFF4
:101B5000CDBF1092E9008091E80083FF25C068E0C6
:101B6000CE0145960E94A10682EF8093E8008D8900
:101B700087FF39C09091E80090FFFCCF982F9076B6
:101B800009F034C19E894F89588D2F89F88C9111A5
:101B900031C0803861F58091D8018093F1001092B6
:101BA000F1008EEF8093E8006C960FB6F894DEBFDC
:101BB0000FBECDBFDF91CF91FF91EF91BF91AF915C
:101BC0009F918F917F916F915F914F913F912F9155
:101BD0001F910F91FF90EF90DF90CF900F900FBE6D
:101BE0000F901F9018959EEF9093E800C7CF10922A
:101BF000F100D5CF913059F48111D3CF4130510547
:101C000081F68091D8018D7F8093D801CACF93301F
:101C100049F48111C6CF4130510519F68091D801A0
:101C20008260F2CF953041F48091E80080FFFCCFD4
:101C300020682093E300B5CF963009F0A9C00B8D42
:101C40001C8D22E01092E9001092D6011092D5016D
:101C5000F2122EC01092D4011092D3010E9470068D
:101C60001F8299E09983FA8291E09E8390EA988797
:101C70009AEF99872091D5013091D601275F3F4F88
:101C80003C832B838D831092E9001092D601109231
:101C9000D5011093D4010093D30149E050E0BE0177
:101CA0006F5F7F4F80E00E944A060E94700679CFE6
:101CB0001093D4010093D3010E948705DC01129692
:101CC0000D911C910115110509F451C1D801ED9137
:101CD000FC910480F581E02DBE016B5E7F4FC80151
:101CE0000995009709F03EC1F80100851185EACFFA
:101CF000F3E0FF120EC08F89882309F440C08230C0
:101D000061F440E860E18FE999E00E946810811178
:101D100048CF81E28093EB0047CF813029F440E83F
:101D20006BE083E999E0F1CF833099F70E94870552
:101D3000DC011296ED90FC908E010F5F1F4F680141
:101D4000E114F10479F0D701ED91FC910680F7815F
:101D5000E02DB801C7010995080F111DF701E084B6
:101D6000F184EECFD8011C92F60101900020E9F732
:101D70003197BF016C197D0940E0C601C6CF6DE700
:101D800079E0FB01449150E080E80E944A0609CFC7
:101D9000973009F4BECF983021F481E08093F100B0
:101DA00000CF993009F0FDCE837009F0B2CFEBE699
:101DB000F1E081E031E096E32191222371F08093FC
:101DC000E9003093EB00DF0111972C912093EC0098
:101DD0009093ED008F5F873079F78EE78093EA006C
:101DE0001092EA008F898093E801DBCE8B8D9C8D69
:101DF0001092E9001092D6011092D5019093D4016F
:101E00008093D301898D811192C08E899D89913AE9
:101E100049F4813209F07DCF47E050E067E071E09E
:101E200080E0B3CF913209F074CF833269F48F89A7
:101E3000988DB0E0A0E08093030190930401A093FB
:101E40000501B0930601ADCE803269F48091E800BF
:101E500082FFFCCF67E087E091E00E94A1068BEF54
:101E60008093E8009ECE823209F09BCE8F898093CA
:101E70000E01EEEFFFE7859194918B3F9C4D51F160
:101E8000E0E0F8E08091070190910801A09109013C
:101E9000B0910A01803B9440A105B105F1F4809115
:101EA0000E0180FD1AC0EE3F8AE0F80789F587E74A
:101EB00097E791838083809160008093D70188E1C8
:101EC0009BE00FB6F894A895809360000FBE9093A6
:101ED000600067CEEEEFFAE0D5CF80819181873741
:101EE000974709F05ECEA895809160008861809345
:101EF00060008091D70180936000EE3F2AE0F207F6
:101F000089F08091FE0A9091FF0A9183808349CEE7
:101F1000808191818737980751F29093FF0A8093CF
:101F2000FE0AC5CF1092FF0A1092FE0A3ACE0E9416
:101F30008705DC0112960D911C910115110509F41C
:101F4000E8CED801ED91FC910190F081E02DBE0129
:101F50006B5E7F4FC8010995811123CEF801008582
:101F60001185EBCF181619060CF41BCED2CEF1E07A
:101F7000FF12BECE61E879E004CF1F920F920FB638
:101F80000F9211242F933F938F939F93AF93BF93FF
:101F90008091CB019091CC01A091CD01B091CE0167
:101FA0003091CA0123E0230F2D3758F50196A11D6A
:101FB000B11D2093CA018093CB019093CC01A093D3
:101FC000CD01B093CE018091CF019091D001A0912D
:101FD000D101B091D2010196A11DB11D8093CF0115
:101FE0009093D001A093D101B093D201BF91AF9152
:101FF0009F918F913F912F910F900FBE0F901F9047
:10200000189526E8230F0296A11DB11DD2CF1F926D
:102010000F920FB60F9211242F933F934F935F931C
:102020006F937F938F939F93AF93BF93EF93FF93A0
:1020300080919B0190919C01A0919D01B0919E0186
:10204000892B8A2B8B2B09F440C080919A01811136
:102050000BC088B190E4892788B9809199018823C1
:1020600019F088B1805888B980919B0190919C01AA
:10207000A0919D01B0919E01181619061A061B0623
:102080009CF480919B0190919C01A0919D01B09145
:102090009E010197A109B10980939B0190939C0136
:1020A000A0939D01B0939E01FF91EF91BF91AF91DD
:1020B0009F918F917F916F915F914F913F912F9160
:1020C0000F900FBE0F901F9018950E94CC07ECCF79
:1020D000EF92FF920F931F93CF93DF93F82E192F58
:1020E000E62E042F81E0860F880F0E941C0683E0F5
:1020F0000E941C06CF2DD12FEC0EFD2EF11CCE150B
:10210000DF05B9F007FF13C0FE0184910E941C0691
:10211000182F80E00E941C06812321968111EFCFA9
:10212000DF91CF911F910F91FF90EF9008958881DB
:10213000EDCF81E0F5CFE9EEF5E01382128288EE73
:1021400093E0A0E0B0E084839583A683B78385E71E
:1021500091E0918380838FEF9FEF95878487E9E4F7
:10216000F6E01382128287E891E09183808383E016
:1021700095E0909348068093470680E090E890931E
:1021800046068093450646983E9A47983F9A08959A
:10219000789484B5826084BD84B5816084BD85B542
:1021A000826085BD85B5816085BD80916E0081604E
:1021B00080936E00109281008091810082608093F4
:1021C00081008091810081608093810080918000F6
:1021D0008160809380008091910082608093910063
:1021E0008091910081608093910080919000816046
:1021F000809390008091C10084608093C1008091A1
:10220000C10082608093C1008091C1008160809391
:10221000C1008091C30081608093C3008091C000A1
:1022200082608093C0008091C20081608093C20070
:1022300080917A00846080937A0080917A00826035
:1022400080937A0080917A00816080937A008091F7
:102250007A00806880937A001092E8011092D80189
:102260001092DA018091D70081608093D70080EAD4
:102270008093D80089B5806189BD89B5826089BDA8
:1022800009B400FEFDCF61E070E080E090E00E94C4
:10229000D3068091D8008F7C80618093D800809194
:1022A000E000807F8093E0008091E1008E7E80934B
:1022B000E1008DE08093E200559A209A81EC8093B2
:1022C0007C0085B1806F85B984B1877E84B984B183
:1022D000876E84B95E9A5F988AB1806D8AB9769A62
:1022E0006E9881B3806F81BB899880B38D7080BBFD
:1022F00080E58CBD81E08DBD85E090E00E949E0868
:102300005F9A85E090E00E949E085E985C98ECE5FC
:10231000F6E089E696E024912EBD00000DB407FE9C
:10232000FDCF31968E179F07B1F75C9A81E88093B5
:102330006400809165008160809365000E94A20B1B
:102340000E94A30887FF15C05C9885EA8EBD000037
:102350000DB407FEFDCF5C9A2E982F982D98809192
:10236000640080628093640081E083BF889513BE1F
:10237000FCCF0E94A30882FF48C02D980E94A308AA
:1023800084788438E1F40E949C0888EC90E00E94F4
:102390009E082F9882E090E00E9443198F3F29F019
:1023A0006FEF82E090E00E944B1984EF91E00E9471
:1023B0009E082F9A0E94A30884788438D9F30E943B
:1023C000A30884718431E1F40E949C0888EC90E0B9
:1023D0000E949E082E9882E090E00E944319882374
:1023E00029F060E082E090E00E944B1984EF91E0D8
:1023F0000E949E082E9A0E94A30884718431D9F30A
:1024000088EC90E00E949E08B4CF0E949C0882E075
:1024100090E00E941A0D882309F44CC03E9A3F9A1E
:1024200081E080939F0181E090E00E941A0D282FA7
:102430002470922E81FF10C021112E98C1EFDFEF82
:1024400008E010E0B8E58B2E0E94A30886FF37C095
:102450002E9A2F9A0E949C0882E390E00E949E0888
:102460000E94A3088111F8CF81E2809300010E94AD
:10247000B10B60E1662E712CC8E3D0E05CE1252E43
:10248000312C8FB7F8944091CB015091CC016091E1
:10249000CD017091CE018FBF8091A001882309F4F6
:1024A000CFC01092A00180E090E0892B51F30E94F0
:1024B0000000E4CF10929F013E983F98B4CF99203E
:1024C00029F0C430D10511F42E9A2F9881E00E9492
:1024D00006059E01D7FF04C0222733272C1B3D0B86
:1024E00027703327CE01D7FD0796A3E095958795F2
:1024F000AA95E1F7D7FF05C00197A801421B530B2E
:102500009A01BC017695762F662777956795675176
:102510007E4FF12CE12C3801621A730A8E3F5FEF77
:10252000950709F43DC08E9CD0018F9CB00D1124FD
:1025300050E040E0A455BA4F5B01E0E8AE0EB11C9C
:102540008F3F980791F0FD01E40FF51FE4916B01B7
:10255000C40ED51EF0E01F01022E01C0220C0A9409
:10256000EAF7F60154882528248A2115310599F0C7
:10257000FD01E40FF51FE4916501C40ED51EF0E0E6
:102580001F01062C02C0359427940A94E2F7F60145
:1025900054882528248A4F5F5F4F4835510581F6BE
:1025A000019660587F4FEA94EF2809F045C00E94D9
:1025B000A20B8FE090E00E949E082196C931D105C0
:1025C00009F042CF992011F02F9A2D9880E991E0DF
:1025D0000E949E080E949C0881E090E00E941A0DD3
:1025E00080FF3ACF8AE090E00E941A0D9FEF980F8B
:1025F0009E3F08F031CF22E330E03093C6012093B4
:10260000C50128E330E03093C4012093C301CBE03F
:10261000D0E0682F89E496E00E94100BCE010E9462
:102620001A0D2196C131D105A1F70E94A20B88EEA7
:1026300093E00E949E0810CFEE24E394F12C6ECF1D
:102640008091A101242F281B822F9091000129172E
:1026500048F48F5F891708F026CF81E083BF889503
:1026600013BE21CF11E01093A0014093A1018091EE
:10267000A7019091A80101969093A8018093A701CA
:102680008091A3018093A2010E94A3088093A301DB
:102690008091C901811160C080E90E94970B882355
:1026A00029F08091A401181B1093A40188E00E94D6
:1026B000970B1091A401882341F081E0112319F0B8
:1026C0001092A50182E08093C9010E94B10B44E100
:1026D00050E05093C6014093C50188E090E090938C
:1026E000C4018093C30189E996E00E947C0B84E2D7
:1026F00090E09093C6018093C5013092C40120926E
:10270000C30182E996E0112311F08BE896E00E9464
:102710007C0B84E290E09093C6018093C50188E22F
:1027200090E09093C4018093C30181E796E011305B
:1027300011F089E696E00E947C0B8CE090E090938B
:10274000C6018093C501D093C401C093C30189E73A
:1027500096E00E947C0B29C0823009F0B8C188E065
:102760000E94970B882339F08091A501833018F4DB
:102770008F5F8093A50184E00E94970B882339F036
:102780008091A5018823A1F081508093A5010E942A
:10279000B10B8091A501813009F476C060F08230E0
:1027A00009F4CFC0833009F429C10E94A20B7BCE6B
:1027B0001092C901ECCF1092C6011092C50110927F
:1027C000C4011092C3018DE197E00E947C0B10922E
:1027D000C6011092C50188E090E09093C4018093F7
:1027E000C3018EE097E00E947C0B1092C60110920C
:1027F000C5017092C4016092C3018CEF96E00E9403
:102800007C0B1092C6011092C50188E190E0909374
:10281000C4018093C30186EE96E00E947C0B109267
:10282000C6011092C50180E290E09093C4018093AC
:10283000C30182ED96E00E947C0B1092C6011092BB
:10284000C50188E290E09093C4018093C3018DEBB1
:1028500096E00E947C0B1092C6011092C50180E3A5
:1028600090E09093C4018093C30188EA96E00E94AF
:102870007C0B1092C6011092C501D093C401C09385
:10288000C30186E897E065CF1092C6011092C5019A
:102890001092C4011092C30181E897E00E947C0B62
:1028A0001092C6011092C50188E090E09093C40197
:1028B0008093C3018CE697E00E947C0B1092C601C6
:1028C0001092C5017092C4016092C30186E597E041
:1028D0000E947C0B1092C6011092C50188E190E025
:1028E0009093C4018093C30187E497E00E947C0B1E
:1028F0001092C6011092C50180E290E09093C4014D
:102900008093C3018AE397E00E947C0B1092C6017A
:102910001092C50188E290E09093C4018093C301B6
:1029200080E397E00E947C0B1092C6011092C501D3
:1029300080E390E09093C4018093C30183E297E029
:1029400096CF1092C6011092C5011092C401109248
:10295000C30180EE97E00E947C0B1092C60110929A
:10296000C50188E090E09093C4018093C30186ED97
:1029700097E00E947C0B1092C6011092C5017092E4
:10298000C4016092C3018CEC97E00E947C0B109212
:10299000C6011092C50188E190E09093C401809334
:1029A000C30182EC97E00E947C0B1092C60110924A
:1029B000C50180E290E09093C4018093C30188EB4D
:1029C00097E00E947C0B1092C6011092C50188E22C
:1029D00090E09093C4018093C30188EA97E00E943D
:1029E0007C0B1092C6011092C50180E390E0909399
:1029F000C4018093C30185E997E039CF1092C601E5
:102A00001092C5011092C4011092C30188E598E0AC
:102A10000E947C0B1092C6011092C50188E090E0E4
:102A20009093C4018093C30185E498E00E947C0BDD
:102A30001092C6011092C5017092C4016092C30148
:102A400087E398E00E947C0B1092C6011092C501AA
:102A500088E190E09093C4018093C30187E298E0FD
:102A60000E947C0B1092C6011092C50180E290E09A
:102A70009093C4018093C30183E198E00E947C0B92
:102A80001092C6011092C50188E290E09093C401B3
:102A90008093C30180E098E00E947C0B1092C601F5
:102AA0001092C50180E390E09093C4018093C3012C
:102AB00080EF97E00E947C0B1092C6011092C50136
:102AC000D093C401C093C30189EE97E042CE109128
:102AD00002011F3F09F4F2C25090A6015394509294
:102AE000A6010E94B10B3092C6012092C50110923E
:102AF000C4011092C3018DE199E00E947C0B54E067
:102B0000159FF0011124E45CFE4FE381EA3008F0E8
:102B10000AC1F0E0E257FA4E0C94DD199815D81569
:102B200024169D16E916121757178417A91721188E
:102B300089E290E09093C6018093C5018CE090E01B
:102B40009093C4018093C30189E698E00E947C0BB6
:102B500048E062E170E08CE090E00E942009052DE1
:102B60000F7710E028E04EE065E270E0C8010E94B7
:102B7000F20841E063E270E0C80103960E94C308D6
:102B800041E063E270E0C8010A960E94C30882E354
:102B900090E09093C6018093C50184E390E0909308
:102BA000C4018093C30184E698E00E947C0BBBC003
:102BB0003092C6012092C5018CE090E09093C40150
:102BC0008093C30182E798E00E947C0B852D869557
:102BD00003E3081B10E078018CE0E80EF11C97017C
:102BE0004AE350E0B80180E490E00E94E8099701D0
:102BF00046E450E0B7018AE390E00E94E8099801BA
:102C000040E450E0B70186E490E00E94E8092EE03D
:102C100049E0B7018CE390E00E94F20841E06AE3EA
:102C200070E08BE390E00E94AB0841E06CE370E061
:102C300083E490E00E94AB0841E069E370E088E43F
:102C400090E00E94AB086FC0852D90E0880F991F1F
:102C50006CE870E00E94C9198C018AE290E09093C0
:102C6000C6018093C5018CE090E09093C4018093ED
:102C7000C30180E898E00E947C0B68019DE0C91ABE
:102C8000D1084BE164E270E0C6010E9415057801AD
:102C9000A9E0EA1AF10843E160E270E0C7010E948E
:102CA000150543E168E270E0C7010E94150520E2C6
:102CB00030E0A70164E270E0C6010E94E809480123
:102CC000B9E08B0E911C5801EDE0AE0EB11C20E274
:102CD00030E0A40164E270E0C5010E94E80928E246
:102CE00030E0A70164E270E0C6010E94E80928E232
:102CF00030E0A40164E270E0C5010E94E80945E00B
:102D00006FE170E0C8010E94200941E069E270E0D3
:102D1000C80108970E94C30841E069E270E0C80159
:102D200008960E94C3080E94A20BBAE5B51508F0E8
:102D3000BACB8FEF80930201B6CB88E190E09093FD
:102D4000C6018093C5018CE090E09093C40180930C
:102D5000C30189E898E00E947C0B53FA112710F90F
:102D600022E144E16EE170E086E390E00E94F20827
:102D700027E04CE067E170E08AE390E00E94F2080F
:102D8000F6E01F9FA0011124445D5F4F2CE130E06D
:102D900063E270E086E390E00E94E8092AEF2103F5
:102DA000A00111244C5A5F4F2CE130E063E270E047
:102DB0008AE490E00E94E80941E06AE170E08DE376
:102DC00090E00E94AB0841E06AE170E083E490E0AB
:102DD00038CF52FC05C081E00E94A50B1092010182
:102DE0003092C6012092C50146E150E05093C401E3
:102DF0004093C30184EA98E00E947C0B8FE190E04D
:102E00009093C6018093C5018AE290E09093C4013B
:102E10008093C30187E998E00E947C0B81E0809356
:102E2000010181CF86E190E09093C6018093C501B6
:102E30008CE090E09093C4018093C30181EB98E013
:102E40000E947C0B052D10E07801EE0CFF1C470161
:102E500098EF891A9EEF990A22E2A22EB12C3AE34A
:102E6000C32ED12CC801B5010E94C9198D5E282F2F
:102E700030E0C701B6010E94C9198D5D41E0B9017A
:102E800090E00E94C308ABE0EA0EF11C095F1F4FFF
:102E90008E149F0439F7852D68E10E94A919492FE6
:102EA00064E270E080E490E00E9420093CCF8BE176
:102EB00090E09093C6018093C5018CE090E09093E0
:102EC000C4018093C30185EC98E00E947C0BB3E0C1
:102ED0005B9EC001112466E770E00E94C9199093BF
:102EE000C6018093C501E5E05E9EC001112468E142
:102EF00070E00E94C919845E90E09093C4018093B1
:102F0000C30182EC98E051CE26E240E762E170E036
:102F100088E090E00E94F2088DE290E09093C60174
:102F20008093C5010AE110E01093C4010093C3012E
:102F300083EE98E00E947C0B1093C6010093C501BC
:102F40008AE290E09093C4018093C30183ED98E0FE
:102F50002CCE86E290E09093C6018093C5018CE070
:102F600090E09093C4018093C30180EF98E00E94A9
:102F70007C0B4EE16AE170E081E390E00E94150570
:102F80004EE161E370E081E390E00E94150540E1CD
:102F90006EE170E08DE290E00E94CC0840E16EE1CD
:102FA00070E082E590E00E94CC0841E06EE170E0C4
:102FB00081E390E00E946C0A42E06EE170E08EE4F2
:102FC00090E00E946C0A44E06DE270E08EE490E0D4
:102FD0000E946C0A48E06DE270E081E390E00E949C
:102FE0006C0A06E310E044E062E270E0C8010E946F
:102FF000CC080F5F1F4F0A331105A9F706E410E054
:1030000044E062E270E0C8010E94CC080F5F1F4FED
:103010000A341105A9F74FE06CE270E089E390E013
:103020000E94150580E390E09093C6018093C5014E
:1030300026E330E03093C4012093C3018AEE98E088
:10304000B4CD46E150E05093C6014093C501709263
:10305000C4016092C3018EE099E00E947C0B2CE0D9
:1030600048E362E270E084E290E00E94F208852D7D
:1030700064E30E94A91986E2E82EF12C092F10E0E2
:103080000A5D1F4FE016F10654F448E064E270E078
:10309000C7010E94CC085FEFE51AF50AF3CF84E17F
:1030A00090E09093C6018093C501A6E3B0E0B09391
:1030B000C401A093C3018BEF98E077CD80E80E9414
:1030C000970B182F882319F080E00E94BD0B80E138
:1030D0000E94970B082F882321F081E00E94BD0BEE
:1030E000102F80E20E94970B082F882321F082E0A6
:1030F0000E94BD0B102F80E40E94970B082F88239D
:1031000021F083E00E94BD0B102F88E00E94970BF6
:10311000082F882321F084E00E94BD0B102F84E04B
:103120000E94970B882309F44AC085E00E94BD0BDA
:103130000E94B10B1092C6011092C5011092C401F9
:103140001092C3018CE299E00E947C0B8091A70150
:103150009091A8016FE070E00E94B51960FD04C075
:103160008AE299E00E947C0BE090C8018E2DECE091
:10317000EE1508F48CE0FE2CF81A1092C60110929D
:10318000C5017092C4016092C3010F2D10E0075574
:103190001E4FFE1460F5D801ED918D016FE3E6300E
:1031A00020F4F0E0EC59FE4F608189E496E00E9443
:1031B000100B8EE299E00E947C0BF394EACF111180
:1031C000B7CF8091C801882309F4B2CF8091C7019D
:1031D0008A3518F48F5F8093C7018091C7018A35C3
:1031E00008F4A6CF1092C8011092C701A1CF109287
:1031F000C6011092C501D093C401C093C30182E3FC
:1032000099E00E947C0BE9EBF1E060E08191811193
:103210006F5F23EC31E02E173F07C1F770E090E0BD
:1032200080E04AE00E94CC0C80E399E00E947C0B95
:103230004AE06AE070E080E090E00E94CC0C80916F
:10324000C801882309F4B1CA8091C701882309F411
:10325000ACCA44E750E05093C6014093C501D093F7
:10326000C401C093C301A7E7B0E0A81BB109CD0119
:103270006EE170E00E94C91970E090E080E04AE0E1
:103280000E94CC0C92CAF999FECF92BD81BDF89AEA
:10329000992780B50895262FF999FECF1FBA92BDC0
:1032A00081BD20BD0FB6F894FA9AF99A0FBE019627
:1032B0000895052E97FB1EF400940E94701957FD87
:1032C00007D00E94781907FC03D04EF40C947019B3
:1032D00050954095309521953F4F4F4F5F4F089542
:1032E00090958095709561957F4F8F4F9F4F089572
:1032F000A1E21A2EAA1BBB1BFD010DC0AA1FBB1FFA
:10330000EE1FFF1FA217B307E407F50720F0A21B6B
:10331000B30BE40BF50B661F771F881F991F1A94D8
:1033200069F760957095809590959B01AC01BD0102
:10333000CF010895A29FB001B39FC001A39F700D5C
:10334000811D1124911DB29F700D811D1124911DAD
:103350000895991B79E004C0991F961708F0961BF1
:10336000881F7A95C9F780950895AA1BBB1B51E168
:1033700007C0AA1FBB1FA617B70710F0A61BB70BE5
:10338000881F991F5A95A9F780959095BC01CD018A
:10339000089597FB072E16F4009407D077FD09D007
:1033A0000E94B51907FC05D03EF4909581959F4F7A
:1033B0000895709561957F4F0895EE0FFF1F05905A
:0A33C000F491E02D0994F894FFCF7A
:1033CA001001FFFFFFFFFF00E10000000000000501
:1033DA0005040402030400050000000101020302BF
:1033EA0003050402020404050001000100010504AA
:1033FA000504020302030404000000043901030067
:10340A0036010301320104022E0104032A010404D5
:10341A00260104052301030619010A0715010408F8
:10342A000F01060955444C52414200C180810000F7
:10343A0000000000009B050607BC05B1050206C096
:10344A0005DE0500000000100B8B07C90CC80C0034
:00000001FF
